{
  "contractName": "Bank",
  "abi": [
    {
      "inputs": [
        {
          "internalType": "contract Token",
          "name": "_token",
          "type": "address"
        },
        {
          "internalType": "uint256",
          "name": "_lockPeriod",
          "type": "uint256"
        },
        {
          "internalType": "uint256",
          "name": "_rewardPool",
          "type": "uint256"
        }
      ],
      "stateMutability": "nonpayable",
      "type": "constructor"
    },
    {
      "anonymous": false,
      "inputs": [
        {
          "indexed": true,
          "internalType": "address",
          "name": "user",
          "type": "address"
        },
        {
          "indexed": false,
          "internalType": "uint256",
          "name": "amount",
          "type": "uint256"
        }
      ],
      "name": "Deposit",
      "type": "event"
    },
    {
      "anonymous": false,
      "inputs": [
        {
          "indexed": true,
          "internalType": "address",
          "name": "previousOwner",
          "type": "address"
        },
        {
          "indexed": true,
          "internalType": "address",
          "name": "newOwner",
          "type": "address"
        }
      ],
      "name": "OwnershipTransferred",
      "type": "event"
    },
    {
      "anonymous": false,
      "inputs": [
        {
          "indexed": true,
          "internalType": "address",
          "name": "user",
          "type": "address"
        },
        {
          "indexed": false,
          "internalType": "uint256",
          "name": "amount",
          "type": "uint256"
        },
        {
          "indexed": false,
          "internalType": "uint256",
          "name": "reward",
          "type": "uint256"
        }
      ],
      "name": "Withdraw",
      "type": "event"
    },
    {
      "anonymous": false,
      "inputs": [
        {
          "indexed": false,
          "internalType": "uint256",
          "name": "amount",
          "type": "uint256"
        }
      ],
      "name": "WithdrawBank",
      "type": "event"
    },
    {
      "inputs": [],
      "name": "LastTime",
      "outputs": [
        {
          "internalType": "uint256",
          "name": "",
          "type": "uint256"
        }
      ],
      "stateMutability": "view",
      "type": "function"
    },
    {
      "inputs": [],
      "name": "R1",
      "outputs": [
        {
          "internalType": "uint256",
          "name": "",
          "type": "uint256"
        }
      ],
      "stateMutability": "view",
      "type": "function"
    },
    {
      "inputs": [],
      "name": "R2",
      "outputs": [
        {
          "internalType": "uint256",
          "name": "",
          "type": "uint256"
        }
      ],
      "stateMutability": "view",
      "type": "function"
    },
    {
      "inputs": [],
      "name": "R3",
      "outputs": [
        {
          "internalType": "uint256",
          "name": "",
          "type": "uint256"
        }
      ],
      "stateMutability": "view",
      "type": "function"
    },
    {
      "inputs": [],
      "name": "creator",
      "outputs": [
        {
          "internalType": "address",
          "name": "",
          "type": "address"
        }
      ],
      "stateMutability": "view",
      "type": "function"
    },
    {
      "inputs": [],
      "name": "lockPeriod",
      "outputs": [
        {
          "internalType": "uint256",
          "name": "",
          "type": "uint256"
        }
      ],
      "stateMutability": "view",
      "type": "function"
    },
    {
      "inputs": [],
      "name": "owner",
      "outputs": [
        {
          "internalType": "address",
          "name": "",
          "type": "address"
        }
      ],
      "stateMutability": "view",
      "type": "function"
    },
    {
      "inputs": [],
      "name": "renounceOwnership",
      "outputs": [],
      "stateMutability": "nonpayable",
      "type": "function"
    },
    {
      "inputs": [],
      "name": "rewardDistributed",
      "outputs": [
        {
          "internalType": "uint256",
          "name": "",
          "type": "uint256"
        }
      ],
      "stateMutability": "view",
      "type": "function"
    },
    {
      "inputs": [],
      "name": "rewardPool",
      "outputs": [
        {
          "internalType": "uint256",
          "name": "",
          "type": "uint256"
        }
      ],
      "stateMutability": "view",
      "type": "function"
    },
    {
      "inputs": [],
      "name": "token",
      "outputs": [
        {
          "internalType": "contract Token",
          "name": "",
          "type": "address"
        }
      ],
      "stateMutability": "view",
      "type": "function"
    },
    {
      "inputs": [],
      "name": "totalStaked",
      "outputs": [
        {
          "internalType": "uint256",
          "name": "",
          "type": "uint256"
        }
      ],
      "stateMutability": "view",
      "type": "function"
    },
    {
      "inputs": [
        {
          "internalType": "address",
          "name": "newOwner",
          "type": "address"
        }
      ],
      "name": "transferOwnership",
      "outputs": [],
      "stateMutability": "nonpayable",
      "type": "function"
    },
    {
      "inputs": [
        {
          "internalType": "address",
          "name": "",
          "type": "address"
        }
      ],
      "name": "users",
      "outputs": [
        {
          "internalType": "uint256",
          "name": "depositAmount",
          "type": "uint256"
        },
        {
          "internalType": "uint256",
          "name": "TimeOfDeposit",
          "type": "uint256"
        }
      ],
      "stateMutability": "view",
      "type": "function"
    },
    {
      "inputs": [],
      "name": "InitAddPoolInBank",
      "outputs": [],
      "stateMutability": "nonpayable",
      "type": "function"
    },
    {
      "inputs": [
        {
          "internalType": "uint256",
          "name": "amount",
          "type": "uint256"
        }
      ],
      "name": "RePool",
      "outputs": [],
      "stateMutability": "nonpayable",
      "type": "function"
    },
    {
      "inputs": [
        {
          "internalType": "uint256",
          "name": "amount",
          "type": "uint256"
        }
      ],
      "name": "deposit",
      "outputs": [],
      "stateMutability": "nonpayable",
      "type": "function"
    },
    {
      "inputs": [],
      "name": "withdraw",
      "outputs": [],
      "stateMutability": "nonpayable",
      "type": "function"
    },
    {
      "inputs": [],
      "name": "getTotalStaked",
      "outputs": [
        {
          "internalType": "uint256",
          "name": "",
          "type": "uint256"
        }
      ],
      "stateMutability": "view",
      "type": "function"
    },
    {
      "inputs": [],
      "name": "getPool",
      "outputs": [
        {
          "internalType": "uint256",
          "name": "",
          "type": "uint256"
        },
        {
          "internalType": "uint256",
          "name": "",
          "type": "uint256"
        },
        {
          "internalType": "uint256",
          "name": "",
          "type": "uint256"
        }
      ],
      "stateMutability": "view",
      "type": "function"
    },
    {
      "inputs": [],
      "name": "getrewardDistributed",
      "outputs": [
        {
          "internalType": "uint256",
          "name": "",
          "type": "uint256"
        }
      ],
      "stateMutability": "view",
      "type": "function"
    },
    {
      "inputs": [
        {
          "internalType": "address",
          "name": "user",
          "type": "address"
        }
      ],
      "name": "ReturnUser",
      "outputs": [
        {
          "components": [
            {
              "internalType": "uint256",
              "name": "depositAmount",
              "type": "uint256"
            },
            {
              "internalType": "uint256",
              "name": "TimeOfDeposit",
              "type": "uint256"
            }
          ],
          "internalType": "struct Bank.User",
          "name": "usercaract",
          "type": "tuple"
        }
      ],
      "stateMutability": "view",
      "type": "function"
    },
    {
      "inputs": [],
      "name": "withdrawBank",
      "outputs": [],
      "stateMutability": "nonpayable",
      "type": "function"
    },
    {
      "inputs": [],
      "name": "BurnPool",
      "outputs": [],
      "stateMutability": "nonpayable",
      "type": "function"
    }
  ],
  "bytecode": "0x60806040523480156200001157600080fd5b5060405162002697380380620026978339818101604052810190620000379190620002e4565b620000576200004b6200015f60201b60201c565b6200016760201b60201c565b33600160006101000a81548173ffffffffffffffffffffffffffffffffffffffff021916908373ffffffffffffffffffffffffffffffffffffffff16021790555082600260006101000a81548173ffffffffffffffffffffffffffffffffffffffff021916908373ffffffffffffffffffffffffffffffffffffffff160217905550816003819055508060048190555060646014600454620000fa91906200036f565b620001069190620003ff565b6007819055506064601e6004546200011f91906200036f565b6200012b9190620003ff565b600881905550606460326004546200014491906200036f565b620001509190620003ff565b60098190555050505062000437565b600033905090565b60008060009054906101000a900473ffffffffffffffffffffffffffffffffffffffff169050816000806101000a81548173ffffffffffffffffffffffffffffffffffffffff021916908373ffffffffffffffffffffffffffffffffffffffff1602179055508173ffffffffffffffffffffffffffffffffffffffff168173ffffffffffffffffffffffffffffffffffffffff167f8be0079c531659141344cd1fd0a4f28419497f9722a3daafe3b4186f6b6457e060405160405180910390a35050565b600080fd5b600073ffffffffffffffffffffffffffffffffffffffff82169050919050565b60006200025d8262000230565b9050919050565b6000620002718262000250565b9050919050565b620002838162000264565b81146200028f57600080fd5b50565b600081519050620002a38162000278565b92915050565b6000819050919050565b620002be81620002a9565b8114620002ca57600080fd5b50565b600081519050620002de81620002b3565b92915050565b6000806000606084860312156200030057620002ff6200022b565b5b6000620003108682870162000292565b93505060206200032386828701620002cd565b92505060406200033686828701620002cd565b9150509250925092565b7f4e487b7100000000000000000000000000000000000000000000000000000000600052601160045260246000fd5b60006200037c82620002a9565b91506200038983620002a9565b9250817fffffffffffffffffffffffffffffffffffffffffffffffffffffffffffffffff0483118215151615620003c557620003c462000340565b5b828202905092915050565b7f4e487b7100000000000000000000000000000000000000000000000000000000600052601260045260246000fd5b60006200040c82620002a9565b91506200041983620002a9565b9250826200042c576200042b620003d0565b5b828204905092915050565b61225080620004476000396000f3fe608060405234801561001057600080fd5b50600436106101585760003560e01c8063a87430ba116100c3578063e9483ac01161007c578063e9483ac014610360578063e9647be21461037e578063f2fde38b14610388578063fc0c546a146103a4578063fee2cb05146103c2578063ff7f0cf9146103e057610158565b8063a87430ba1461028b578063b22dd2ca146102bc578063b6b55f25146102da578063c2c6bcb0146102f6578063db4bed0e14610312578063e0bf54391461033057610158565b80633fd8b02f116101155780633fd8b02f146101ff57806366666aa91461021d5780636acce9321461023b578063715018a614610245578063817b1cd21461024f5780638da5cb5b1461026d57610158565b8063026b1d5f1461015d57806302d05d3f1461017d5780630917e7761461019b5780631290d9cd146101b95780631a049cf8146101d75780633ccfd60b146101f5575b600080fd5b6101656103ea565b6040516101749392919061185a565b60405180910390f35b610185610403565b60405161019291906118d2565b60405180910390f35b6101a3610429565b6040516101b091906118ed565b60405180910390f35b6101c1610433565b6040516101ce91906118ed565b60405180910390f35b6101df61043d565b6040516101ec91906118ed565b60405180910390f35b6101fd610443565b005b6102076107fb565b60405161021491906118ed565b60405180910390f35b610225610801565b60405161023291906118ed565b60405180910390f35b610243610807565b005b61024d6109e7565b005b6102576109fb565b60405161026491906118ed565b60405180910390f35b610275610a01565b60405161028291906118d2565b60405180910390f35b6102a560048036038101906102a09190611939565b610a2a565b6040516102b3929190611966565b60405180910390f35b6102c4610a4e565b6040516102d191906118ed565b60405180910390f35b6102f460048036038101906102ef91906119bb565b610a54565b005b610310600480360381019061030b91906119bb565b610cb9565b005b61031a610e34565b60405161032791906118ed565b60405180910390f35b61034a60048036038101906103459190611939565b610e3a565b6040516103579190611a26565b60405180910390f35b610368610ea7565b60405161037591906118ed565b60405180910390f35b610386610ead565b005b6103a2600480360381019061039d9190611939565b61109d565b005b6103ac611121565b6040516103b99190611aa0565b60405180910390f35b6103ca611147565b6040516103d791906118ed565b60405180910390f35b6103e861114d565b005b6000806000600754600854600954925092509250909192565b600160009054906101000a900473ffffffffffffffffffffffffffffffffffffffff1681565b6000600554905090565b6000600654905090565b600a5481565b6000600c60003373ffffffffffffffffffffffffffffffffffffffff1673ffffffffffffffffffffffffffffffffffffffff16815260200190815260200160002060000154116104c8576040517f08c379a00000000000000000000000000000000000000000000000000000000081526004016104bf90611b18565b60405180910390fd5b60026003546104d79190611b67565b600c60003373ffffffffffffffffffffffffffffffffffffffff1673ffffffffffffffffffffffffffffffffffffffff168152602001908152602001600020600101546105249190611bc1565b421015610566576040517f08c379a000000000000000000000000000000000000000000000000000000000815260040161055d90611c89565b60405180910390fd5b6000610571336113b1565b9050600081600c60003373ffffffffffffffffffffffffffffffffffffffff1673ffffffffffffffffffffffffffffffffffffffff168152602001908152602001600020600001546105c39190611bc1565b9050600c60003373ffffffffffffffffffffffffffffffffffffffff1673ffffffffffffffffffffffffffffffffffffffff168152602001908152602001600020600001546005546106159190611ca9565b600581905550600c60003373ffffffffffffffffffffffffffffffffffffffff1673ffffffffffffffffffffffffffffffffffffffff16815260200190815260200160002060008082016000905560018201600090555050600260009054906101000a900473ffffffffffffffffffffffffffffffffffffffff1673ffffffffffffffffffffffffffffffffffffffff1663a9059cbb33836040518363ffffffff1660e01b81526004016106ca929190611cdd565b6020604051808303816000875af11580156106e9573d6000803e3d6000fd5b505050506040513d601f19601f8201168201806040525081019061070d9190611d3e565b61074c576040517f08c379a000000000000000000000000000000000000000000000000000000000815260040161074390611db7565b60405180910390fd5b816006600082825461075e9190611bc1565b925050819055503373ffffffffffffffffffffffffffffffffffffffff167ff279e6a1f5e320cca91135676d9cb6e44ca8a08c0b88342bcdb1144f6511b568600c60003373ffffffffffffffffffffffffffffffffffffffff1673ffffffffffffffffffffffffffffffffffffffff16815260200190815260200160002060000154846040516107ef929190611966565b60405180910390a25050565b60035481565b60045481565b600160009054906101000a900473ffffffffffffffffffffffffffffffffffffffff1673ffffffffffffffffffffffffffffffffffffffff163373ffffffffffffffffffffffffffffffffffffffff1614610897576040517f08c379a000000000000000000000000000000000000000000000000000000000815260040161088e90611e49565b60405180910390fd5b600b60009054906101000a900460ff16156108e7576040517f08c379a00000000000000000000000000000000000000000000000000000000081526004016108de90611eb5565b60405180910390fd5b600260009054906101000a900473ffffffffffffffffffffffffffffffffffffffff1673ffffffffffffffffffffffffffffffffffffffff166323b872dd33306004546040518463ffffffff1660e01b815260040161094893929190611ed5565b6020604051808303816000875af1158015610967573d6000803e3d6000fd5b505050506040513d601f19601f8201168201806040525081019061098b9190611d3e565b6109ca576040517f08c379a00000000000000000000000000000000000000000000000000000000081526004016109c190611db7565b60405180910390fd5b6001600b60006101000a81548160ff021916908315150217905550565b6109ef6116dd565b6109f9600061175b565b565b60055481565b60008060009054906101000a900473ffffffffffffffffffffffffffffffffffffffff16905090565b600c6020528060005260406000206000915090508060000154908060010154905082565b60075481565b6000600c60003373ffffffffffffffffffffffffffffffffffffffff1673ffffffffffffffffffffffffffffffffffffffff1681526020019081526020016000206000015414610ad9576040517f08c379a0000000000000000000000000000000000000000000000000000000008152600401610ad090611f58565b60405180910390fd5b600260009054906101000a900473ffffffffffffffffffffffffffffffffffffffff1673ffffffffffffffffffffffffffffffffffffffff166323b872dd3330846040518463ffffffff1660e01b8152600401610b3893929190611ed5565b6020604051808303816000875af1158015610b57573d6000803e3d6000fd5b505050506040513d601f19601f82011682018060405250810190610b7b9190611d3e565b610bba576040517f08c379a0000000000000000000000000000000000000000000000000000000008152600401610bb190611db7565b60405180910390fd5b80600c60003373ffffffffffffffffffffffffffffffffffffffff1673ffffffffffffffffffffffffffffffffffffffff1681526020019081526020016000206000018190555042600c60003373ffffffffffffffffffffffffffffffffffffffff1673ffffffffffffffffffffffffffffffffffffffff1681526020019081526020016000206001018190555042600a819055508060056000828254610c619190611bc1565b925050819055503373ffffffffffffffffffffffffffffffffffffffff167fe1fffcc4923d04b559f4d29a8bfc6cda04eb5b0d3c460751c2402c5c5cc9109c82604051610cae91906118ed565b60405180910390a250565b600160009054906101000a900473ffffffffffffffffffffffffffffffffffffffff1673ffffffffffffffffffffffffffffffffffffffff163373ffffffffffffffffffffffffffffffffffffffff1614610d49576040517f08c379a0000000000000000000000000000000000000000000000000000000008152600401610d4090611e49565b60405180910390fd5b600260009054906101000a900473ffffffffffffffffffffffffffffffffffffffff1673ffffffffffffffffffffffffffffffffffffffff166323b872dd3330846040518463ffffffff1660e01b8152600401610da893929190611ed5565b6020604051808303816000875af1158015610dc7573d6000803e3d6000fd5b505050506040513d601f19601f82011682018060405250810190610deb9190611d3e565b610e2a576040517f08c379a0000000000000000000000000000000000000000000000000000000008152600401610e2190611db7565b60405180910390fd5b8060048190555050565b60095481565b610e42611827565b600c60008373ffffffffffffffffffffffffffffffffffffffff1673ffffffffffffffffffffffffffffffffffffffff168152602001908152602001600020604051806040016040529081600082015481526020016001820154815250509050919050565b60065481565b600160009054906101000a900473ffffffffffffffffffffffffffffffffffffffff1673ffffffffffffffffffffffffffffffffffffffff163373ffffffffffffffffffffffffffffffffffffffff1614610f3d576040517f08c379a0000000000000000000000000000000000000000000000000000000008152600401610f3490611e49565b60405180910390fd5b6005600354610f4c9190611b67565b600a54610f599190611bc1565b421015610f9b576040517f08c379a0000000000000000000000000000000000000000000000000000000008152600401610f9290611fc4565b60405180910390fd5b6000600954600854600754610fb09190611bc1565b610fba9190611bc1565b9050600260009054906101000a900473ffffffffffffffffffffffffffffffffffffffff1673ffffffffffffffffffffffffffffffffffffffff16639dc29fac30836040518363ffffffff1660e01b8152600401611019929190611cdd565b600060405180830381600087803b15801561103357600080fd5b505af1158015611047573d6000803e3d6000fd5b505050506000600781905550600060088190555060006009819055507f493bd91499e6216263348c84bdc873978f4ff24bcf146891f38b28afd794a6c58160405161109291906118ed565b60405180910390a150565b6110a56116dd565b600073ffffffffffffffffffffffffffffffffffffffff168173ffffffffffffffffffffffffffffffffffffffff161415611115576040517f08c379a000000000000000000000000000000000000000000000000000000000815260040161110c90612056565b60405180910390fd5b61111e8161175b565b50565b600260009054906101000a900473ffffffffffffffffffffffffffffffffffffffff1681565b60085481565b600160009054906101000a900473ffffffffffffffffffffffffffffffffffffffff1673ffffffffffffffffffffffffffffffffffffffff163373ffffffffffffffffffffffffffffffffffffffff16146111dd576040517f08c379a00000000000000000000000000000000000000000000000000000000081526004016111d490611e49565b60405180910390fd5b60046003546111ec9190611b67565b600a546111f99190611bc1565b42101561123b576040517f08c379a0000000000000000000000000000000000000000000000000000000008152600401611232906120c2565b60405180910390fd5b60006009546008546007546112509190611bc1565b61125a9190611bc1565b9050600260009054906101000a900473ffffffffffffffffffffffffffffffffffffffff1673ffffffffffffffffffffffffffffffffffffffff166323b872dd600260009054906101000a900473ffffffffffffffffffffffffffffffffffffffff1630846040518463ffffffff1660e01b81526004016112dd93929190611ed5565b6020604051808303816000875af11580156112fc573d6000803e3d6000fd5b505050506040513d601f19601f820116820180604052508101906113209190611d3e565b61135f576040517f08c379a00000000000000000000000000000000000000000000000000000000081526004016113569061212e565b60405180910390fd5b6000600781905550600060088190555060006009819055507f493bd91499e6216263348c84bdc873978f4ff24bcf146891f38b28afd794a6c5816040516113a691906118ed565b60405180910390a150565b6000806113bc610429565b90506000600c60008573ffffffffffffffffffffffffffffffffffffffff1673ffffffffffffffffffffffffffffffffffffffff16815260200190815260200160002060000154905060046003546114149190611b67565b600c60008673ffffffffffffffffffffffffffffffffffffffff1673ffffffffffffffffffffffffffffffffffffffff168152602001908152602001600020600101546114619190611bc1565b421061154457600082826009546114789190611b67565b611482919061217d565b9050806009546114929190611ca9565b60098190555082826008546114a79190611b67565b6114b1919061217d565b83836007546114c09190611b67565b6114ca919061217d565b826114d59190611bc1565b6114df9190611bc1565b905082826007546114f09190611b67565b6114fa919061217d565b6007546115079190611ca9565b600781905550828260085461151c9190611b67565b611526919061217d565b6008546115339190611ca9565b6008819055508093505050506116d8565b600380546115529190611b67565b600c60008673ffffffffffffffffffffffffffffffffffffffff1673ffffffffffffffffffffffffffffffffffffffff1681526020019081526020016000206001015461159f9190611bc1565b421061163357600082826008546115b69190611b67565b6115c0919061217d565b9050806008546115d09190611ca9565b60088190555082826007546115e59190611b67565b6115ef919061217d565b816115fa9190611bc1565b9050828260075461160b9190611b67565b611615919061217d565b6007546116229190611ca9565b6007819055508093505050506116d8565b60026003546116429190611b67565b600c60008673ffffffffffffffffffffffffffffffffffffffff1673ffffffffffffffffffffffffffffffffffffffff1681526020019081526020016000206001015461168f9190611bc1565b42106116d157600082826007546116a69190611b67565b6116b0919061217d565b9050806007546116c09190611ca9565b6007819055508093505050506116d8565b6000925050505b919050565b6116e561181f565b73ffffffffffffffffffffffffffffffffffffffff16611703610a01565b73ffffffffffffffffffffffffffffffffffffffff1614611759576040517f08c379a0000000000000000000000000000000000000000000000000000000008152600401611750906121fa565b60405180910390fd5b565b60008060009054906101000a900473ffffffffffffffffffffffffffffffffffffffff169050816000806101000a81548173ffffffffffffffffffffffffffffffffffffffff021916908373ffffffffffffffffffffffffffffffffffffffff1602179055508173ffffffffffffffffffffffffffffffffffffffff168173ffffffffffffffffffffffffffffffffffffffff167f8be0079c531659141344cd1fd0a4f28419497f9722a3daafe3b4186f6b6457e060405160405180910390a35050565b600033905090565b604051806040016040528060008152602001600081525090565b6000819050919050565b61185481611841565b82525050565b600060608201905061186f600083018661184b565b61187c602083018561184b565b611889604083018461184b565b949350505050565b600073ffffffffffffffffffffffffffffffffffffffff82169050919050565b60006118bc82611891565b9050919050565b6118cc816118b1565b82525050565b60006020820190506118e760008301846118c3565b92915050565b6000602082019050611902600083018461184b565b92915050565b600080fd5b611916816118b1565b811461192157600080fd5b50565b6000813590506119338161190d565b92915050565b60006020828403121561194f5761194e611908565b5b600061195d84828501611924565b91505092915050565b600060408201905061197b600083018561184b565b611988602083018461184b565b9392505050565b61199881611841565b81146119a357600080fd5b50565b6000813590506119b58161198f565b92915050565b6000602082840312156119d1576119d0611908565b5b60006119df848285016119a6565b91505092915050565b6119f181611841565b82525050565b604082016000820151611a0d60008501826119e8565b506020820151611a2060208501826119e8565b50505050565b6000604082019050611a3b60008301846119f7565b92915050565b6000819050919050565b6000611a66611a61611a5c84611891565b611a41565b611891565b9050919050565b6000611a7882611a4b565b9050919050565b6000611a8a82611a6d565b9050919050565b611a9a81611a7f565b82525050565b6000602082019050611ab56000830184611a91565b92915050565b600082825260208201905092915050565b7f55736572206861736e2774206465706f73697465640000000000000000000000600082015250565b6000611b02601583611abb565b9150611b0d82611acc565b602082019050919050565b60006020820190508181036000830152611b3181611af5565b9050919050565b7f4e487b7100000000000000000000000000000000000000000000000000000000600052601160045260246000fd5b6000611b7282611841565b9150611b7d83611841565b9250817fffffffffffffffffffffffffffffffffffffffffffffffffffffffffffffffff0483118215151615611bb657611bb5611b38565b5b828202905092915050565b6000611bcc82611841565b9150611bd783611841565b9250827fffffffffffffffffffffffffffffffffffffffffffffffffffffffffffffffff03821115611c0c57611c0b611b38565b5b828201905092915050565b7f546f6b656e7320617265206c6f636b65642c207472616e73616374696f6e207260008201527f6566757365640000000000000000000000000000000000000000000000000000602082015250565b6000611c73602683611abb565b9150611c7e82611c17565b604082019050919050565b60006020820190508181036000830152611ca281611c66565b9050919050565b6000611cb482611841565b9150611cbf83611841565b925082821015611cd257611cd1611b38565b5b828203905092915050565b6000604082019050611cf260008301856118c3565b611cff602083018461184b565b9392505050565b60008115159050919050565b611d1b81611d06565b8114611d2657600080fd5b50565b600081519050611d3881611d12565b92915050565b600060208284031215611d5457611d53611908565b5b6000611d6284828501611d29565b91505092915050565b7f4661696c656420746f207472616e7366657220746f6b656e7300000000000000600082015250565b6000611da1601983611abb565b9150611dac82611d6b565b602082019050919050565b60006020820190508181036000830152611dd081611d94565b9050919050565b7f4f6e6c7920636f6e74726163742063726561746f722063616e2063616c6c207460008201527f6869732066756e6374696f6e0000000000000000000000000000000000000000602082015250565b6000611e33602c83611abb565b9150611e3e82611dd7565b604082019050919050565b60006020820190508181036000830152611e6281611e26565b9050919050565b7f4a757374206f6e63652e00000000000000000000000000000000000000000000600082015250565b6000611e9f600a83611abb565b9150611eaa82611e69565b602082019050919050565b60006020820190508181036000830152611ece81611e92565b9050919050565b6000606082019050611eea60008301866118c3565b611ef760208301856118c3565b611f04604083018461184b565b949350505050565b7f5573657220616c7265616479206465706f736974656400000000000000000000600082015250565b6000611f42601683611abb565b9150611f4d82611f0c565b602082019050919050565b60006020820190508181036000830152611f7181611f35565b9050919050565b7f5430202b203554206e6f742072656163686564207965742e0000000000000000600082015250565b6000611fae601883611abb565b9150611fb982611f78565b602082019050919050565b60006020820190508181036000830152611fdd81611fa1565b9050919050565b7f4f776e61626c653a206e6577206f776e657220697320746865207a65726f206160008201527f6464726573730000000000000000000000000000000000000000000000000000602082015250565b6000612040602683611abb565b915061204b82611fe4565b604082019050919050565b6000602082019050818103600083015261206f81612033565b9050919050565b7f5430202b203454206e6f742072656163686564207965742e0000000000000000600082015250565b60006120ac601883611abb565b91506120b782612076565b602082019050919050565b600060208201905081810360008301526120db8161209f565b9050919050565b7f546f6b656e207472616e73666572206661696c65640000000000000000000000600082015250565b6000612118601583611abb565b9150612123826120e2565b602082019050919050565b600060208201905081810360008301526121478161210b565b9050919050565b7f4e487b7100000000000000000000000000000000000000000000000000000000600052601260045260246000fd5b600061218882611841565b915061219383611841565b9250826121a3576121a261214e565b5b828204905092915050565b7f4f776e61626c653a2063616c6c6572206973206e6f7420746865206f776e6572600082015250565b60006121e4602083611abb565b91506121ef826121ae565b602082019050919050565b60006020820190508181036000830152612213816121d7565b905091905056fea2646970667358221220642baf9e1d7e9fc726e345f82f5437149ee5feb594f2f57e6d9f2a278055ccde64736f6c634300080c0033",
  "immutableReferences": {},
  "source": "// SPDX-License-Identifier: MIT\npragma solidity ^0.8.0;\n\nimport \"@openzeppelin/contracts/token/ERC20/IERC20.sol\";\nimport \"@openzeppelin/contracts/access/Ownable.sol\";\nimport \"./Token.sol\";\nimport \"@ganache/console.log/console.sol\";\n\ncontract Bank is Ownable{\n   \n    address public creator;\n    Token public token;\n    uint256 public lockPeriod;\n    uint256 public rewardPool;\n    uint256 public totalStaked; \n \n    uint256 public rewardDistributed;\n\n\n\n    uint256 public R1;\n    uint256 public R2;\n    uint256 public R3;\n\n    uint256 public LastTime;\n\n    bool private hasExecuted;\n\n    struct User {\n        uint256 depositAmount;\n        uint256 TimeOfDeposit;\n    }\n\n    mapping(address => User) public users;\n\n    event Deposit(address indexed user, uint256 amount);\n    event Withdraw(address indexed user, uint256 amount, uint256 reward);\n    event WithdrawBank(uint256 amount);\n\n    modifier onlyCreator() {\n        require(msg.sender == creator, \"Only contract creator can call this function\");\n        _;\n    }\n\n    constructor(\n        Token _token,\n        uint256 _lockPeriod,\n        uint256 _rewardPool\n    ) {\n        creator = msg.sender;\n        token = _token;\n        lockPeriod = _lockPeriod;\n        rewardPool = _rewardPool;\n\n        R1 = rewardPool * 20 / 100;\n        R2 = rewardPool * 30 / 100;\n        R3 = rewardPool * 50 / 100;\n\n    }\n\n    /**\n     * @dev Initialize the reward pool by transferring tokens to the contract.\n     * This function can only be called once by the contract creator.\n     */\n    function InitAddPoolInBank() public onlyCreator {\n        require(!hasExecuted, \"Just once.\");\n        \n        require(token.transferFrom(msg.sender, address(this), rewardPool), \"Failed to transfer tokens\");\n        \n        hasExecuted = true;\n    }\n\n    /**\n     * @dev We can re-pool the reward pool by transferring tokens to the contract.\n     * @param amount The amount of tokens to transfer.\n     */\n    function RePool(uint256 amount) public onlyCreator {\n\n        require(token.transferFrom(msg.sender, address(this), amount), \"Failed to transfer tokens\");\n        rewardPool = amount;\n    }\n\n    /**\n     * @dev Deposit tokens into the bank. Users can deposit only once.\n     * @param amount The amount of tokens to deposit.\n     */\n    function deposit(uint256 amount) external {\n\n        require(users[msg.sender].depositAmount == 0, \"User already deposited\");\n        require(token.transferFrom(msg.sender, address(this), amount), \"Failed to transfer tokens\");\n        users[msg.sender].depositAmount = amount;\n        users[msg.sender].TimeOfDeposit = block.timestamp;\n\n        LastTime = block.timestamp;\n\n        totalStaked += amount;\n        emit Deposit(msg.sender, amount);\n    }\n\n   /**\n     * @dev Withdraw deposited tokens along with the reward, if applicable.\n     * Users can withdraw only after a specified lock period.\n     */\n    function withdraw() external {\n        require(users[msg.sender].depositAmount > 0, \"User hasn't deposited\");\n        require(block.timestamp >= users[msg.sender].TimeOfDeposit + (lockPeriod * 2), \"Tokens are locked, transaction refused\");\n\n        uint256 reward = calculateReward(msg.sender);\n        uint256 totalAmount = users[msg.sender].depositAmount + reward;\n\n        totalStaked = totalStaked - users[msg.sender].depositAmount;\n        delete users[msg.sender];\n\n        require(token.transfer(msg.sender, totalAmount), \"Failed to transfer tokens\");\n        rewardDistributed += reward; \n\n\n        emit Withdraw(msg.sender, users[msg.sender].depositAmount, reward);\n    }\n\n    /**\n     * @dev Calculate the reward for a user based on their deposit amount and the current reward pool distribution.\n     * @param user The user's address.\n     * @return The reward amount.\n     */\n    function calculateReward(address user) private returns (uint256) {\n        uint256 _totalStaked = getTotalStaked();\n        uint256 userDeposit = users[user].depositAmount;\n\n        if (block.timestamp >= users[user].TimeOfDeposit + (lockPeriod * 4)) {\n\n            uint256 reward = R3 * userDeposit / _totalStaked;\n            R3 = R3 - reward;\n            reward = reward + (R1 * userDeposit / _totalStaked) + (R2 * userDeposit / _totalStaked);\n            //reward = reward + (R1 + R2) * userDeposit / _totalStaked;\n            R1 = R1 - (R1 * userDeposit / _totalStaked);\n            R2 = R2 - (R2 * userDeposit / _totalStaked);\n\n            return reward;\n        } else if (block.timestamp >= users[user].TimeOfDeposit + (lockPeriod * 3)) {\n\n            uint256 reward = R2 * userDeposit / _totalStaked;\n            R2 = R2 - reward;\n            reward = reward + (R1 * userDeposit / _totalStaked);\n            R1 = R1 - (R1 * userDeposit / _totalStaked);\n            return reward;\n\n        } else if (block.timestamp >= users[user].TimeOfDeposit + (lockPeriod * 2)) {\n\n            uint256 reward = R1 * userDeposit / _totalStaked;\n            R1 = R1 - reward;\n\n            return reward;\n\n        }else {\n\n            return 0;\n        }\n    }\n\n    /**\n     * @dev Get the total staked amount in the bank.\n     * @return The total staked amount.\n     */\n    function getTotalStaked() public view returns (uint256) {\n        return totalStaked;\n    }\n\n    /**\n     * @dev Get the current reward pool distribution.\n     * @return The rewards R1, R2, and R3.\n     */\n    function getPool() public view returns (uint256,uint256,uint256) {\n        return (R1,R2,R3);\n    }\n\n    /**\n     * @dev Get the total reward distributed to users.\n     * @return The total reward distributed.\n     */\n    function getrewardDistributed() public view returns (uint256) {\n        return rewardDistributed;\n    }\n\n    /**\n     * @dev Get the deposit details of a user.\n     * @param user The user's address.\n     * @return usercaract The User struct containing depositAmount and TimeOfDeposit.\n     */\n    function ReturnUser(address user) view external returns (User memory usercaract){\n        usercaract = users[user];\n        return usercaract;\n    }\n\n\n    /**\n     * @dev Withdraw remaining reward from the bank.\n     * This function can only be called by the contract creator after a specified lock period.\n     */\n     function withdrawBank() public onlyCreator {\n\n        require(block.timestamp >= LastTime + (lockPeriod * 4), \"T0 + 4T not reached yet.\");\n\n        uint256 Remainingreward = R1 + R2 + R3;\n        require(token.transferFrom(address(token),address(this), Remainingreward), \"Token transfer failed\");\n\n\n        R1 = 0;\n        R2 = 0; \n        R3 = 0;\n        \n        emit WithdrawBank(Remainingreward);\n    }\n\n\n    /**\n     * @dev Burn remaining reward from the bank.\n     * This function can only be called by the contract creator after a specified lock period.\n     */\n    function BurnPool() public onlyCreator {\n\n        require(block.timestamp >= LastTime + (lockPeriod * 5), \"T0 + 5T not reached yet.\");\n\n        uint256 Remainingreward = R1 + R2 + R3;\n        token.burn(address(this), Remainingreward);\n\n\n        R1 = 0;\n        R2 = 0; \n        R3 = 0;\n        \n        emit WithdrawBank(Remainingreward);\n    }\n\n}\n",
  "sourcePath": "/home/souhail/Documents/PROJET Station F/Move/Origintrail-App/bank/Origintrail/contracts/Bank.sol",
  "compiler": {
    "name": "solc",
    "version": "0.8.12+commit.f00d7308.Emscripten.clang"
  },
  "schemaVersion": "3.4.6",
  "updatedAt": "2023-07-28T08:54:30.855Z",
  "devdoc": {
    "kind": "dev",
    "methods": {
      "BurnPool()": {
        "details": "Burn remaining reward from the bank. This function can only be called by the contract creator after a specified lock period."
      },
      "InitAddPoolInBank()": {
        "details": "Initialize the reward pool by transferring tokens to the contract. This function can only be called once by the contract creator."
      },
      "RePool(uint256)": {
        "details": "We can re-pool the reward pool by transferring tokens to the contract.",
        "params": {
          "amount": "The amount of tokens to transfer."
        }
      },
      "ReturnUser(address)": {
        "details": "Get the deposit details of a user.",
        "params": {
          "user": "The user's address."
        },
        "returns": {
          "usercaract": "The User struct containing depositAmount and TimeOfDeposit."
        }
      },
      "deposit(uint256)": {
        "details": "Deposit tokens into the bank. Users can deposit only once.",
        "params": {
          "amount": "The amount of tokens to deposit."
        }
      },
      "getPool()": {
        "details": "Get the current reward pool distribution.",
        "returns": {
          "_0": "The rewards R1, R2, and R3."
        }
      },
      "getTotalStaked()": {
        "details": "Get the total staked amount in the bank.",
        "returns": {
          "_0": "The total staked amount."
        }
      },
      "getrewardDistributed()": {
        "details": "Get the total reward distributed to users.",
        "returns": {
          "_0": "The total reward distributed."
        }
      },
      "owner()": {
        "details": "Returns the address of the current owner."
      },
      "renounceOwnership()": {
        "details": "Leaves the contract without owner. It will not be possible to call `onlyOwner` functions. Can only be called by the current owner. NOTE: Renouncing ownership will leave the contract without an owner, thereby disabling any functionality that is only available to the owner."
      },
      "transferOwnership(address)": {
        "details": "Transfers ownership of the contract to a new account (`newOwner`). Can only be called by the current owner."
      },
      "withdraw()": {
        "details": "Withdraw deposited tokens along with the reward, if applicable. Users can withdraw only after a specified lock period."
      },
      "withdrawBank()": {
        "details": "Withdraw remaining reward from the bank. This function can only be called by the contract creator after a specified lock period."
      }
    },
    "version": 1
  },
  "userdoc": {
    "kind": "user",
    "methods": {},
    "version": 1
  }
}