{
  "contractName": "Bank",
  "abi": [
    {
      "inputs": [
        {
          "internalType": "contract Token",
          "name": "_token",
          "type": "address"
        },
        {
          "internalType": "uint256",
          "name": "_lockPeriod",
          "type": "uint256"
        },
        {
          "internalType": "uint256",
          "name": "_rewardPool",
          "type": "uint256"
        }
      ],
      "stateMutability": "nonpayable",
      "type": "constructor"
    },
    {
      "anonymous": false,
      "inputs": [
        {
          "indexed": true,
          "internalType": "address",
          "name": "user",
          "type": "address"
        },
        {
          "indexed": false,
          "internalType": "uint256",
          "name": "amount",
          "type": "uint256"
        }
      ],
      "name": "Deposit",
      "type": "event"
    },
    {
      "anonymous": false,
      "inputs": [
        {
          "indexed": true,
          "internalType": "address",
          "name": "previousOwner",
          "type": "address"
        },
        {
          "indexed": true,
          "internalType": "address",
          "name": "newOwner",
          "type": "address"
        }
      ],
      "name": "OwnershipTransferred",
      "type": "event"
    },
    {
      "anonymous": false,
      "inputs": [
        {
          "indexed": true,
          "internalType": "address",
          "name": "user",
          "type": "address"
        },
        {
          "indexed": false,
          "internalType": "uint256",
          "name": "amount",
          "type": "uint256"
        },
        {
          "indexed": false,
          "internalType": "uint256",
          "name": "reward",
          "type": "uint256"
        }
      ],
      "name": "Withdraw",
      "type": "event"
    },
    {
      "anonymous": false,
      "inputs": [
        {
          "indexed": false,
          "internalType": "uint256",
          "name": "amount",
          "type": "uint256"
        }
      ],
      "name": "WithdrawBank",
      "type": "event"
    },
    {
      "inputs": [],
      "name": "LastTime",
      "outputs": [
        {
          "internalType": "uint256",
          "name": "",
          "type": "uint256"
        }
      ],
      "stateMutability": "view",
      "type": "function",
      "constant": true
    },
    {
      "inputs": [],
      "name": "R1",
      "outputs": [
        {
          "internalType": "uint256",
          "name": "",
          "type": "uint256"
        }
      ],
      "stateMutability": "view",
      "type": "function",
      "constant": true
    },
    {
      "inputs": [],
      "name": "R2",
      "outputs": [
        {
          "internalType": "uint256",
          "name": "",
          "type": "uint256"
        }
      ],
      "stateMutability": "view",
      "type": "function",
      "constant": true
    },
    {
      "inputs": [],
      "name": "R3",
      "outputs": [
        {
          "internalType": "uint256",
          "name": "",
          "type": "uint256"
        }
      ],
      "stateMutability": "view",
      "type": "function",
      "constant": true
    },
    {
      "inputs": [],
      "name": "creator",
      "outputs": [
        {
          "internalType": "address",
          "name": "",
          "type": "address"
        }
      ],
      "stateMutability": "view",
      "type": "function",
      "constant": true
    },
    {
      "inputs": [],
      "name": "lockPeriod",
      "outputs": [
        {
          "internalType": "uint256",
          "name": "",
          "type": "uint256"
        }
      ],
      "stateMutability": "view",
      "type": "function",
      "constant": true
    },
    {
      "inputs": [],
      "name": "owner",
      "outputs": [
        {
          "internalType": "address",
          "name": "",
          "type": "address"
        }
      ],
      "stateMutability": "view",
      "type": "function",
      "constant": true
    },
    {
      "inputs": [],
      "name": "renounceOwnership",
      "outputs": [],
      "stateMutability": "nonpayable",
      "type": "function"
    },
    {
      "inputs": [],
      "name": "rewardDistributed",
      "outputs": [
        {
          "internalType": "uint256",
          "name": "",
          "type": "uint256"
        }
      ],
      "stateMutability": "view",
      "type": "function",
      "constant": true
    },
    {
      "inputs": [],
      "name": "rewardPool",
      "outputs": [
        {
          "internalType": "uint256",
          "name": "",
          "type": "uint256"
        }
      ],
      "stateMutability": "view",
      "type": "function",
      "constant": true
    },
    {
      "inputs": [],
      "name": "token",
      "outputs": [
        {
          "internalType": "contract Token",
          "name": "",
          "type": "address"
        }
      ],
      "stateMutability": "view",
      "type": "function",
      "constant": true
    },
    {
      "inputs": [],
      "name": "totalStaked",
      "outputs": [
        {
          "internalType": "uint256",
          "name": "",
          "type": "uint256"
        }
      ],
      "stateMutability": "view",
      "type": "function",
      "constant": true
    },
    {
      "inputs": [
        {
          "internalType": "address",
          "name": "newOwner",
          "type": "address"
        }
      ],
      "name": "transferOwnership",
      "outputs": [],
      "stateMutability": "nonpayable",
      "type": "function"
    },
    {
      "inputs": [
        {
          "internalType": "address",
          "name": "",
          "type": "address"
        }
      ],
      "name": "users",
      "outputs": [
        {
          "internalType": "uint256",
          "name": "depositAmount",
          "type": "uint256"
        },
        {
          "internalType": "uint256",
          "name": "TimeOfDeposit",
          "type": "uint256"
        }
      ],
      "stateMutability": "view",
      "type": "function",
      "constant": true
    },
    {
      "inputs": [],
      "name": "InitAddPoolInBank",
      "outputs": [],
      "stateMutability": "nonpayable",
      "type": "function"
    },
    {
      "inputs": [
        {
          "internalType": "uint256",
          "name": "amount",
          "type": "uint256"
        }
      ],
      "name": "deposit",
      "outputs": [],
      "stateMutability": "nonpayable",
      "type": "function"
    },
    {
      "inputs": [],
      "name": "withdraw",
      "outputs": [],
      "stateMutability": "nonpayable",
      "type": "function"
    },
    {
      "inputs": [],
      "name": "getTotalStaked",
      "outputs": [
        {
          "internalType": "uint256",
          "name": "",
          "type": "uint256"
        }
      ],
      "stateMutability": "view",
      "type": "function",
      "constant": true
    },
    {
      "inputs": [],
      "name": "getPool",
      "outputs": [
        {
          "internalType": "uint256",
          "name": "",
          "type": "uint256"
        },
        {
          "internalType": "uint256",
          "name": "",
          "type": "uint256"
        },
        {
          "internalType": "uint256",
          "name": "",
          "type": "uint256"
        }
      ],
      "stateMutability": "view",
      "type": "function",
      "constant": true
    },
    {
      "inputs": [],
      "name": "getrewardDistributed",
      "outputs": [
        {
          "internalType": "uint256",
          "name": "",
          "type": "uint256"
        }
      ],
      "stateMutability": "view",
      "type": "function",
      "constant": true
    },
    {
      "inputs": [
        {
          "internalType": "address",
          "name": "user",
          "type": "address"
        }
      ],
      "name": "ReturnUser",
      "outputs": [
        {
          "components": [
            {
              "internalType": "uint256",
              "name": "depositAmount",
              "type": "uint256"
            },
            {
              "internalType": "uint256",
              "name": "TimeOfDeposit",
              "type": "uint256"
            }
          ],
          "internalType": "struct Bank.User",
          "name": "usercaract",
          "type": "tuple"
        }
      ],
      "stateMutability": "view",
      "type": "function",
      "constant": true
    },
    {
      "inputs": [],
      "name": "withdrawBank",
      "outputs": [],
      "stateMutability": "nonpayable",
      "type": "function"
    },
    {
      "inputs": [],
      "name": "BurnPool",
      "outputs": [],
      "stateMutability": "nonpayable",
      "type": "function"
    }
  ],
  "bytecode": "0x60806040523480156200001157600080fd5b50604051620024f5380380620024f58339818101604052810190620000379190620002e4565b620000576200004b6200015f60201b60201c565b6200016760201b60201c565b33600160006101000a81548173ffffffffffffffffffffffffffffffffffffffff021916908373ffffffffffffffffffffffffffffffffffffffff16021790555082600260006101000a81548173ffffffffffffffffffffffffffffffffffffffff021916908373ffffffffffffffffffffffffffffffffffffffff160217905550816003819055508060048190555060646014600454620000fa91906200036f565b620001069190620003ff565b6007819055506064601e6004546200011f91906200036f565b6200012b9190620003ff565b600881905550606460326004546200014491906200036f565b620001509190620003ff565b60098190555050505062000437565b600033905090565b60008060009054906101000a900473ffffffffffffffffffffffffffffffffffffffff169050816000806101000a81548173ffffffffffffffffffffffffffffffffffffffff021916908373ffffffffffffffffffffffffffffffffffffffff1602179055508173ffffffffffffffffffffffffffffffffffffffff168173ffffffffffffffffffffffffffffffffffffffff167f8be0079c531659141344cd1fd0a4f28419497f9722a3daafe3b4186f6b6457e060405160405180910390a35050565b600080fd5b600073ffffffffffffffffffffffffffffffffffffffff82169050919050565b60006200025d8262000230565b9050919050565b6000620002718262000250565b9050919050565b620002838162000264565b81146200028f57600080fd5b50565b600081519050620002a38162000278565b92915050565b6000819050919050565b620002be81620002a9565b8114620002ca57600080fd5b50565b600081519050620002de81620002b3565b92915050565b6000806000606084860312156200030057620002ff6200022b565b5b6000620003108682870162000292565b93505060206200032386828701620002cd565b92505060406200033686828701620002cd565b9150509250925092565b7f4e487b7100000000000000000000000000000000000000000000000000000000600052601160045260246000fd5b60006200037c82620002a9565b91506200038983620002a9565b9250817fffffffffffffffffffffffffffffffffffffffffffffffffffffffffffffffff0483118215151615620003c557620003c462000340565b5b828202905092915050565b7f4e487b7100000000000000000000000000000000000000000000000000000000600052601260045260246000fd5b60006200040c82620002a9565b91506200041983620002a9565b9250826200042c576200042b620003d0565b5b828204905092915050565b6120ae80620004476000396000f3fe608060405234801561001057600080fd5b506004361061014d5760003560e01c80638da5cb5b116100c3578063e9483ac01161007c578063e9483ac014610339578063e9647be214610357578063f2fde38b14610361578063fc0c546a1461037d578063fee2cb051461039b578063ff7f0cf9146103b95761014d565b80638da5cb5b14610262578063a87430ba14610280578063b22dd2ca146102b1578063b6b55f25146102cf578063db4bed0e146102eb578063e0bf5439146103095761014d565b80633ccfd60b116101155780633ccfd60b146101ea5780633fd8b02f146101f457806366666aa9146102125780636acce93214610230578063715018a61461023a578063817b1cd2146102445761014d565b8063026b1d5f1461015257806302d05d3f146101725780630917e776146101905780631290d9cd146101ae5780631a049cf8146101cc575b600080fd5b61015a6103c3565b604051610169939291906116b8565b60405180910390f35b61017a6103dc565b6040516101879190611730565b60405180910390f35b610198610402565b6040516101a5919061174b565b60405180910390f35b6101b661040c565b6040516101c3919061174b565b60405180910390f35b6101d4610416565b6040516101e1919061174b565b60405180910390f35b6101f261041c565b005b6101fc6107d4565b604051610209919061174b565b60405180910390f35b61021a6107da565b604051610227919061174b565b60405180910390f35b6102386107e0565b005b6102426109c0565b005b61024c6109d4565b604051610259919061174b565b60405180910390f35b61026a6109da565b6040516102779190611730565b60405180910390f35b61029a60048036038101906102959190611797565b610a03565b6040516102a89291906117c4565b60405180910390f35b6102b9610a27565b6040516102c6919061174b565b60405180910390f35b6102e960048036038101906102e49190611819565b610a2d565b005b6102f3610c92565b604051610300919061174b565b60405180910390f35b610323600480360381019061031e9190611797565b610c98565b6040516103309190611884565b60405180910390f35b610341610d05565b60405161034e919061174b565b60405180910390f35b61035f610d0b565b005b61037b60048036038101906103769190611797565b610efb565b005b610385610f7f565b60405161039291906118fe565b60405180910390f35b6103a3610fa5565b6040516103b0919061174b565b60405180910390f35b6103c1610fab565b005b6000806000600754600854600954925092509250909192565b600160009054906101000a900473ffffffffffffffffffffffffffffffffffffffff1681565b6000600554905090565b6000600654905090565b600a5481565b6000600c60003373ffffffffffffffffffffffffffffffffffffffff1673ffffffffffffffffffffffffffffffffffffffff16815260200190815260200160002060000154116104a1576040517f08c379a000000000000000000000000000000000000000000000000000000000815260040161049890611976565b60405180910390fd5b60026003546104b091906119c5565b600c60003373ffffffffffffffffffffffffffffffffffffffff1673ffffffffffffffffffffffffffffffffffffffff168152602001908152602001600020600101546104fd9190611a1f565b42101561053f576040517f08c379a000000000000000000000000000000000000000000000000000000000815260040161053690611ae7565b60405180910390fd5b600061054a3361120f565b9050600081600c60003373ffffffffffffffffffffffffffffffffffffffff1673ffffffffffffffffffffffffffffffffffffffff1681526020019081526020016000206000015461059c9190611a1f565b9050600c60003373ffffffffffffffffffffffffffffffffffffffff1673ffffffffffffffffffffffffffffffffffffffff168152602001908152602001600020600001546005546105ee9190611b07565b600581905550600c60003373ffffffffffffffffffffffffffffffffffffffff1673ffffffffffffffffffffffffffffffffffffffff16815260200190815260200160002060008082016000905560018201600090555050600260009054906101000a900473ffffffffffffffffffffffffffffffffffffffff1673ffffffffffffffffffffffffffffffffffffffff1663a9059cbb33836040518363ffffffff1660e01b81526004016106a3929190611b3b565b6020604051808303816000875af11580156106c2573d6000803e3d6000fd5b505050506040513d601f19601f820116820180604052508101906106e69190611b9c565b610725576040517f08c379a000000000000000000000000000000000000000000000000000000000815260040161071c90611c15565b60405180910390fd5b81600660008282546107379190611a1f565b925050819055503373ffffffffffffffffffffffffffffffffffffffff167ff279e6a1f5e320cca91135676d9cb6e44ca8a08c0b88342bcdb1144f6511b568600c60003373ffffffffffffffffffffffffffffffffffffffff1673ffffffffffffffffffffffffffffffffffffffff16815260200190815260200160002060000154846040516107c89291906117c4565b60405180910390a25050565b60035481565b60045481565b600160009054906101000a900473ffffffffffffffffffffffffffffffffffffffff1673ffffffffffffffffffffffffffffffffffffffff163373ffffffffffffffffffffffffffffffffffffffff1614610870576040517f08c379a000000000000000000000000000000000000000000000000000000000815260040161086790611ca7565b60405180910390fd5b600b60009054906101000a900460ff16156108c0576040517f08c379a00000000000000000000000000000000000000000000000000000000081526004016108b790611d13565b60405180910390fd5b600260009054906101000a900473ffffffffffffffffffffffffffffffffffffffff1673ffffffffffffffffffffffffffffffffffffffff166323b872dd33306004546040518463ffffffff1660e01b815260040161092193929190611d33565b6020604051808303816000875af1158015610940573d6000803e3d6000fd5b505050506040513d601f19601f820116820180604052508101906109649190611b9c565b6109a3576040517f08c379a000000000000000000000000000000000000000000000000000000000815260040161099a90611c15565b60405180910390fd5b6001600b60006101000a81548160ff021916908315150217905550565b6109c861153b565b6109d260006115b9565b565b60055481565b60008060009054906101000a900473ffffffffffffffffffffffffffffffffffffffff16905090565b600c6020528060005260406000206000915090508060000154908060010154905082565b60075481565b6000600c60003373ffffffffffffffffffffffffffffffffffffffff1673ffffffffffffffffffffffffffffffffffffffff1681526020019081526020016000206000015414610ab2576040517f08c379a0000000000000000000000000000000000000000000000000000000008152600401610aa990611db6565b60405180910390fd5b600260009054906101000a900473ffffffffffffffffffffffffffffffffffffffff1673ffffffffffffffffffffffffffffffffffffffff166323b872dd3330846040518463ffffffff1660e01b8152600401610b1193929190611d33565b6020604051808303816000875af1158015610b30573d6000803e3d6000fd5b505050506040513d601f19601f82011682018060405250810190610b549190611b9c565b610b93576040517f08c379a0000000000000000000000000000000000000000000000000000000008152600401610b8a90611c15565b60405180910390fd5b80600c60003373ffffffffffffffffffffffffffffffffffffffff1673ffffffffffffffffffffffffffffffffffffffff1681526020019081526020016000206000018190555042600c60003373ffffffffffffffffffffffffffffffffffffffff1673ffffffffffffffffffffffffffffffffffffffff1681526020019081526020016000206001018190555042600a819055508060056000828254610c3a9190611a1f565b925050819055503373ffffffffffffffffffffffffffffffffffffffff167fe1fffcc4923d04b559f4d29a8bfc6cda04eb5b0d3c460751c2402c5c5cc9109c82604051610c87919061174b565b60405180910390a250565b60095481565b610ca0611685565b600c60008373ffffffffffffffffffffffffffffffffffffffff1673ffffffffffffffffffffffffffffffffffffffff168152602001908152602001600020604051806040016040529081600082015481526020016001820154815250509050919050565b60065481565b600160009054906101000a900473ffffffffffffffffffffffffffffffffffffffff1673ffffffffffffffffffffffffffffffffffffffff163373ffffffffffffffffffffffffffffffffffffffff1614610d9b576040517f08c379a0000000000000000000000000000000000000000000000000000000008152600401610d9290611ca7565b60405180910390fd5b6005600354610daa91906119c5565b600a54610db79190611a1f565b421015610df9576040517f08c379a0000000000000000000000000000000000000000000000000000000008152600401610df090611e22565b60405180910390fd5b6000600954600854600754610e0e9190611a1f565b610e189190611a1f565b9050600260009054906101000a900473ffffffffffffffffffffffffffffffffffffffff1673ffffffffffffffffffffffffffffffffffffffff16639dc29fac30836040518363ffffffff1660e01b8152600401610e77929190611b3b565b600060405180830381600087803b158015610e9157600080fd5b505af1158015610ea5573d6000803e3d6000fd5b505050506000600781905550600060088190555060006009819055507f493bd91499e6216263348c84bdc873978f4ff24bcf146891f38b28afd794a6c581604051610ef0919061174b565b60405180910390a150565b610f0361153b565b600073ffffffffffffffffffffffffffffffffffffffff168173ffffffffffffffffffffffffffffffffffffffff161415610f73576040517f08c379a0000000000000000000000000000000000000000000000000000000008152600401610f6a90611eb4565b60405180910390fd5b610f7c816115b9565b50565b600260009054906101000a900473ffffffffffffffffffffffffffffffffffffffff1681565b60085481565b600160009054906101000a900473ffffffffffffffffffffffffffffffffffffffff1673ffffffffffffffffffffffffffffffffffffffff163373ffffffffffffffffffffffffffffffffffffffff161461103b576040517f08c379a000000000000000000000000000000000000000000000000000000000815260040161103290611ca7565b60405180910390fd5b600460035461104a91906119c5565b600a546110579190611a1f565b421015611099576040517f08c379a000000000000000000000000000000000000000000000000000000000815260040161109090611f20565b60405180910390fd5b60006009546008546007546110ae9190611a1f565b6110b89190611a1f565b9050600260009054906101000a900473ffffffffffffffffffffffffffffffffffffffff1673ffffffffffffffffffffffffffffffffffffffff166323b872dd600260009054906101000a900473ffffffffffffffffffffffffffffffffffffffff1630846040518463ffffffff1660e01b815260040161113b93929190611d33565b6020604051808303816000875af115801561115a573d6000803e3d6000fd5b505050506040513d601f19601f8201168201806040525081019061117e9190611b9c565b6111bd576040517f08c379a00000000000000000000000000000000000000000000000000000000081526004016111b490611f8c565b60405180910390fd5b6000600781905550600060088190555060006009819055507f493bd91499e6216263348c84bdc873978f4ff24bcf146891f38b28afd794a6c581604051611204919061174b565b60405180910390a150565b60008061121a610402565b90506000600c60008573ffffffffffffffffffffffffffffffffffffffff1673ffffffffffffffffffffffffffffffffffffffff168152602001908152602001600020600001549050600460035461127291906119c5565b600c60008673ffffffffffffffffffffffffffffffffffffffff1673ffffffffffffffffffffffffffffffffffffffff168152602001908152602001600020600101546112bf9190611a1f565b42106113a257600082826009546112d691906119c5565b6112e09190611fdb565b9050806009546112f09190611b07565b600981905550828260085461130591906119c5565b61130f9190611fdb565b838360075461131e91906119c5565b6113289190611fdb565b826113339190611a1f565b61133d9190611a1f565b9050828260075461134e91906119c5565b6113589190611fdb565b6007546113659190611b07565b600781905550828260085461137a91906119c5565b6113849190611fdb565b6008546113919190611b07565b600881905550809350505050611536565b600380546113b091906119c5565b600c60008673ffffffffffffffffffffffffffffffffffffffff1673ffffffffffffffffffffffffffffffffffffffff168152602001908152602001600020600101546113fd9190611a1f565b4210611491576000828260085461141491906119c5565b61141e9190611fdb565b90508060085461142e9190611b07565b600881905550828260075461144391906119c5565b61144d9190611fdb565b816114589190611a1f565b9050828260075461146991906119c5565b6114739190611fdb565b6007546114809190611b07565b600781905550809350505050611536565b60026003546114a091906119c5565b600c60008673ffffffffffffffffffffffffffffffffffffffff1673ffffffffffffffffffffffffffffffffffffffff168152602001908152602001600020600101546114ed9190611a1f565b421061152f576000828260075461150491906119c5565b61150e9190611fdb565b90508060075461151e9190611b07565b600781905550809350505050611536565b6000925050505b919050565b61154361167d565b73ffffffffffffffffffffffffffffffffffffffff166115616109da565b73ffffffffffffffffffffffffffffffffffffffff16146115b7576040517f08c379a00000000000000000000000000000000000000000000000000000000081526004016115ae90612058565b60405180910390fd5b565b60008060009054906101000a900473ffffffffffffffffffffffffffffffffffffffff169050816000806101000a81548173ffffffffffffffffffffffffffffffffffffffff021916908373ffffffffffffffffffffffffffffffffffffffff1602179055508173ffffffffffffffffffffffffffffffffffffffff168173ffffffffffffffffffffffffffffffffffffffff167f8be0079c531659141344cd1fd0a4f28419497f9722a3daafe3b4186f6b6457e060405160405180910390a35050565b600033905090565b604051806040016040528060008152602001600081525090565b6000819050919050565b6116b28161169f565b82525050565b60006060820190506116cd60008301866116a9565b6116da60208301856116a9565b6116e760408301846116a9565b949350505050565b600073ffffffffffffffffffffffffffffffffffffffff82169050919050565b600061171a826116ef565b9050919050565b61172a8161170f565b82525050565b60006020820190506117456000830184611721565b92915050565b600060208201905061176060008301846116a9565b92915050565b600080fd5b6117748161170f565b811461177f57600080fd5b50565b6000813590506117918161176b565b92915050565b6000602082840312156117ad576117ac611766565b5b60006117bb84828501611782565b91505092915050565b60006040820190506117d960008301856116a9565b6117e660208301846116a9565b9392505050565b6117f68161169f565b811461180157600080fd5b50565b600081359050611813816117ed565b92915050565b60006020828403121561182f5761182e611766565b5b600061183d84828501611804565b91505092915050565b61184f8161169f565b82525050565b60408201600082015161186b6000850182611846565b50602082015161187e6020850182611846565b50505050565b60006040820190506118996000830184611855565b92915050565b6000819050919050565b60006118c46118bf6118ba846116ef565b61189f565b6116ef565b9050919050565b60006118d6826118a9565b9050919050565b60006118e8826118cb565b9050919050565b6118f8816118dd565b82525050565b600060208201905061191360008301846118ef565b92915050565b600082825260208201905092915050565b7f55736572206861736e2774206465706f73697465640000000000000000000000600082015250565b6000611960601583611919565b915061196b8261192a565b602082019050919050565b6000602082019050818103600083015261198f81611953565b9050919050565b7f4e487b7100000000000000000000000000000000000000000000000000000000600052601160045260246000fd5b60006119d08261169f565b91506119db8361169f565b9250817fffffffffffffffffffffffffffffffffffffffffffffffffffffffffffffffff0483118215151615611a1457611a13611996565b5b828202905092915050565b6000611a2a8261169f565b9150611a358361169f565b9250827fffffffffffffffffffffffffffffffffffffffffffffffffffffffffffffffff03821115611a6a57611a69611996565b5b828201905092915050565b7f546f6b656e7320617265206c6f636b65642c207472616e73616374696f6e207260008201527f6566757365640000000000000000000000000000000000000000000000000000602082015250565b6000611ad1602683611919565b9150611adc82611a75565b604082019050919050565b60006020820190508181036000830152611b0081611ac4565b9050919050565b6000611b128261169f565b9150611b1d8361169f565b925082821015611b3057611b2f611996565b5b828203905092915050565b6000604082019050611b506000830185611721565b611b5d60208301846116a9565b9392505050565b60008115159050919050565b611b7981611b64565b8114611b8457600080fd5b50565b600081519050611b9681611b70565b92915050565b600060208284031215611bb257611bb1611766565b5b6000611bc084828501611b87565b91505092915050565b7f4661696c656420746f207472616e7366657220746f6b656e7300000000000000600082015250565b6000611bff601983611919565b9150611c0a82611bc9565b602082019050919050565b60006020820190508181036000830152611c2e81611bf2565b9050919050565b7f4f6e6c7920636f6e74726163742063726561746f722063616e2063616c6c207460008201527f6869732066756e6374696f6e0000000000000000000000000000000000000000602082015250565b6000611c91602c83611919565b9150611c9c82611c35565b604082019050919050565b60006020820190508181036000830152611cc081611c84565b9050919050565b7f4a757374206f6e63652e00000000000000000000000000000000000000000000600082015250565b6000611cfd600a83611919565b9150611d0882611cc7565b602082019050919050565b60006020820190508181036000830152611d2c81611cf0565b9050919050565b6000606082019050611d486000830186611721565b611d556020830185611721565b611d6260408301846116a9565b949350505050565b7f5573657220616c7265616479206465706f736974656400000000000000000000600082015250565b6000611da0601683611919565b9150611dab82611d6a565b602082019050919050565b60006020820190508181036000830152611dcf81611d93565b9050919050565b7f5430202b203554206e6f742072656163686564207965742e0000000000000000600082015250565b6000611e0c601883611919565b9150611e1782611dd6565b602082019050919050565b60006020820190508181036000830152611e3b81611dff565b9050919050565b7f4f776e61626c653a206e6577206f776e657220697320746865207a65726f206160008201527f6464726573730000000000000000000000000000000000000000000000000000602082015250565b6000611e9e602683611919565b9150611ea982611e42565b604082019050919050565b60006020820190508181036000830152611ecd81611e91565b9050919050565b7f5430202b203454206e6f742072656163686564207965742e0000000000000000600082015250565b6000611f0a601883611919565b9150611f1582611ed4565b602082019050919050565b60006020820190508181036000830152611f3981611efd565b9050919050565b7f546f6b656e207472616e73666572206661696c65640000000000000000000000600082015250565b6000611f76601583611919565b9150611f8182611f40565b602082019050919050565b60006020820190508181036000830152611fa581611f69565b9050919050565b7f4e487b7100000000000000000000000000000000000000000000000000000000600052601260045260246000fd5b6000611fe68261169f565b9150611ff18361169f565b92508261200157612000611fac565b5b828204905092915050565b7f4f776e61626c653a2063616c6c6572206973206e6f7420746865206f776e6572600082015250565b6000612042602083611919565b915061204d8261200c565b602082019050919050565b6000602082019050818103600083015261207181612035565b905091905056fea2646970667358221220d1b8fb57855a643356afb9506ebedef5471b7e879291892631b7df28dbf84f4d64736f6c634300080c0033",
  "immutableReferences": {},
  "source": "// SPDX-License-Identifier: MIT\npragma solidity ^0.8.0;\n\nimport \"@openzeppelin/contracts/token/ERC20/IERC20.sol\";\nimport \"@openzeppelin/contracts/access/Ownable.sol\";\nimport \"./Token.sol\";\nimport \"@ganache/console.log/console.sol\";\n\ncontract Bank is Ownable{\n   \n    address public creator;\n    Token public token;\n    uint256 public lockPeriod;\n    uint256 public rewardPool;\n    uint256 public totalStaked; \n \n    uint256 public rewardDistributed;\n\n\n\n    uint256 public R1;\n    uint256 public R2;\n    uint256 public R3;\n\n    uint256 public LastTime;\n\n    bool private hasExecuted;\n\n    struct User {\n        uint256 depositAmount;\n        uint256 TimeOfDeposit;\n    }\n\n    mapping(address => User) public users;\n\n    event Deposit(address indexed user, uint256 amount);\n    event Withdraw(address indexed user, uint256 amount, uint256 reward);\n    event WithdrawBank(uint256 amount);\n\n    modifier onlyCreator() {\n        require(msg.sender == creator, \"Only contract creator can call this function\");\n        _;\n    }\n\n    constructor(\n        Token _token,\n        uint256 _lockPeriod,\n        uint256 _rewardPool\n    ) {\n        creator = msg.sender;\n        token = _token;\n        lockPeriod = _lockPeriod;\n        rewardPool = _rewardPool;\n\n        R1 = rewardPool * 20 / 100;\n        R2 = rewardPool * 30 / 100;\n        R3 = rewardPool * 50 / 100;\n\n    }\n\n    /**\n     * @dev Initialize the reward pool by transferring tokens to the contract.\n     * This function can only be called once by the contract creator.\n     */\n    function InitAddPoolInBank() public onlyCreator {\n        require(!hasExecuted, \"Just once.\");\n        \n        require(token.transferFrom(msg.sender, address(this), rewardPool), \"Failed to transfer tokens\");\n        \n        hasExecuted = true;\n    }\n\n    /**\n     * @dev Deposit tokens into the bank. Users can deposit only once.\n     * @param amount The amount of tokens to deposit.\n     */\n    function deposit(uint256 amount) external {\n\n        require(users[msg.sender].depositAmount == 0, \"User already deposited\");\n        require(token.transferFrom(msg.sender, address(this), amount), \"Failed to transfer tokens\");\n        users[msg.sender].depositAmount = amount;\n        users[msg.sender].TimeOfDeposit = block.timestamp;\n\n        LastTime = block.timestamp;\n\n        totalStaked += amount;\n        emit Deposit(msg.sender, amount);\n    }\n\n   /**\n     * @dev Withdraw deposited tokens along with the reward, if applicable.\n     * Users can withdraw only after a specified lock period.\n     */\n    function withdraw() external {\n        require(users[msg.sender].depositAmount > 0, \"User hasn't deposited\");\n        require(block.timestamp >= users[msg.sender].TimeOfDeposit + (lockPeriod * 2), \"Tokens are locked, transaction refused\");\n\n        uint256 reward = calculateReward(msg.sender);\n        uint256 totalAmount = users[msg.sender].depositAmount + reward;\n\n        totalStaked = totalStaked - users[msg.sender].depositAmount;\n        delete users[msg.sender];\n\n        require(token.transfer(msg.sender, totalAmount), \"Failed to transfer tokens\");\n        rewardDistributed += reward; \n\n\n        emit Withdraw(msg.sender, users[msg.sender].depositAmount, reward);\n    }\n\n    /**\n     * @dev Calculate the reward for a user based on their deposit amount and the current reward pool distribution.\n     * @param user The user's address.\n     * @return The reward amount.\n     */\n    function calculateReward(address user) private returns (uint256) {\n        uint256 _totalStaked = getTotalStaked();\n        uint256 userDeposit = users[user].depositAmount;\n\n        if (block.timestamp >= users[user].TimeOfDeposit + (lockPeriod * 4)) {\n\n            uint256 reward = R3 * userDeposit / _totalStaked;\n            R3 = R3 - reward;\n            reward = reward + (R1 * userDeposit / _totalStaked) + (R2 * userDeposit / _totalStaked);\n            //reward = reward + (R1 + R2) * userDeposit / _totalStaked;\n            R1 = R1 - (R1 * userDeposit / _totalStaked);\n            R2 = R2 - (R2 * userDeposit / _totalStaked);\n\n            return reward;\n        } else if (block.timestamp >= users[user].TimeOfDeposit + (lockPeriod * 3)) {\n\n            uint256 reward = R2 * userDeposit / _totalStaked;\n            R2 = R2 - reward;\n            reward = reward + (R1 * userDeposit / _totalStaked);\n            R1 = R1 - (R1 * userDeposit / _totalStaked);\n            return reward;\n\n        } else if (block.timestamp >= users[user].TimeOfDeposit + (lockPeriod * 2)) {\n\n            uint256 reward = R1 * userDeposit / _totalStaked;\n            R1 = R1 - reward;\n\n            return reward;\n\n        }else {\n\n            return 0;\n        }\n    }\n\n    /**\n     * @dev Get the total staked amount in the bank.\n     * @return The total staked amount.\n     */\n    function getTotalStaked() public view returns (uint256) {\n        return totalStaked;\n    }\n\n    /**\n     * @dev Get the current reward pool distribution.\n     * @return The rewards R1, R2, and R3.\n     */\n    function getPool() public view returns (uint256,uint256,uint256) {\n        return (R1,R2,R3);\n    }\n\n    /**\n     * @dev Get the total reward distributed to users.\n     * @return The total reward distributed.\n     */\n    function getrewardDistributed() public view returns (uint256) {\n        return rewardDistributed;\n    }\n\n    /**\n     * @dev Get the deposit details of a user.\n     * @param user The user's address.\n     * @return usercaract The User struct containing depositAmount and TimeOfDeposit.\n     */\n    function ReturnUser(address user) view external returns (User memory usercaract){\n        usercaract = users[user];\n        return usercaract;\n    }\n\n\n    /**\n     * @dev Withdraw remaining reward from the bank.\n     * This function can only be called by the contract creator after a specified lock period.\n     */\n     function withdrawBank() public onlyCreator {\n\n        require(block.timestamp >= LastTime + (lockPeriod * 4), \"T0 + 4T not reached yet.\");\n\n        uint256 Remainingreward = R1 + R2 + R3;\n        require(token.transferFrom(address(token),address(this), Remainingreward), \"Token transfer failed\");\n\n\n        R1 = 0;\n        R2 = 0; \n        R3 = 0;\n        \n        emit WithdrawBank(Remainingreward);\n    }\n\n\n    /**\n     * @dev Burn remaining reward from the bank.\n     * This function can only be called by the contract creator after a specified lock period.\n     */\n    function BurnPool() public onlyCreator {\n\n        require(block.timestamp >= LastTime + (lockPeriod * 5), \"T0 + 5T not reached yet.\");\n\n        uint256 Remainingreward = R1 + R2 + R3;\n        token.burn(address(this), Remainingreward);\n\n\n        R1 = 0;\n        R2 = 0; \n        R3 = 0;\n        \n        emit WithdrawBank(Remainingreward);\n    }\n\n}",
  "sourcePath": "/home/souhail/Documents/PROJET Station F/Move/Origintrail-App/bank/Origintrail/contracts/Bank.sol",
  "compiler": {
    "name": "solc",
    "version": "0.8.12+commit.f00d7308.Emscripten.clang"
  },
  "schemaVersion": "3.4.6",
  "updatedAt": "2023-07-27T16:01:56.128Z",
  "networkType": "ethereum",
  "devdoc": {
    "kind": "dev",
    "methods": {
      "BurnPool()": {
        "details": "Burn remaining reward from the bank. This function can only be called by the contract creator after a specified lock period."
      },
      "InitAddPoolInBank()": {
        "details": "Initialize the reward pool by transferring tokens to the contract. This function can only be called once by the contract creator."
      },
      "ReturnUser(address)": {
        "details": "Get the deposit details of a user.",
        "params": {
          "user": "The user's address."
        },
        "returns": {
          "usercaract": "The User struct containing depositAmount and TimeOfDeposit."
        }
      },
      "deposit(uint256)": {
        "details": "Deposit tokens into the bank. Users can deposit only once.",
        "params": {
          "amount": "The amount of tokens to deposit."
        }
      },
      "getPool()": {
        "details": "Get the current reward pool distribution.",
        "returns": {
          "_0": "The rewards R1, R2, and R3."
        }
      },
      "getTotalStaked()": {
        "details": "Get the total staked amount in the bank.",
        "returns": {
          "_0": "The total staked amount."
        }
      },
      "getrewardDistributed()": {
        "details": "Get the total reward distributed to users.",
        "returns": {
          "_0": "The total reward distributed."
        }
      },
      "owner()": {
        "details": "Returns the address of the current owner."
      },
      "renounceOwnership()": {
        "details": "Leaves the contract without owner. It will not be possible to call `onlyOwner` functions. Can only be called by the current owner. NOTE: Renouncing ownership will leave the contract without an owner, thereby disabling any functionality that is only available to the owner."
      },
      "transferOwnership(address)": {
        "details": "Transfers ownership of the contract to a new account (`newOwner`). Can only be called by the current owner."
      },
      "withdraw()": {
        "details": "Withdraw deposited tokens along with the reward, if applicable. Users can withdraw only after a specified lock period."
      },
      "withdrawBank()": {
        "details": "Withdraw remaining reward from the bank. This function can only be called by the contract creator after a specified lock period."
      }
    },
    "version": 1
  },
  "userdoc": {
    "kind": "user",
    "methods": {},
    "version": 1
  }
}