{
  "contractName": "Token",
  "abi": [
    {
      "inputs": [],
      "stateMutability": "nonpayable",
      "type": "constructor"
    },
    {
      "anonymous": false,
      "inputs": [
        {
          "indexed": true,
          "internalType": "address",
          "name": "owner",
          "type": "address"
        },
        {
          "indexed": true,
          "internalType": "address",
          "name": "spender",
          "type": "address"
        },
        {
          "indexed": false,
          "internalType": "uint256",
          "name": "value",
          "type": "uint256"
        }
      ],
      "name": "Approval",
      "type": "event"
    },
    {
      "anonymous": false,
      "inputs": [
        {
          "indexed": false,
          "internalType": "address",
          "name": "recipient",
          "type": "address"
        },
        {
          "indexed": false,
          "internalType": "uint256",
          "name": "amount",
          "type": "uint256"
        }
      ],
      "name": "DenyTransfer",
      "type": "event"
    },
    {
      "anonymous": false,
      "inputs": [
        {
          "indexed": false,
          "internalType": "address",
          "name": "sender",
          "type": "address"
        },
        {
          "indexed": false,
          "internalType": "address",
          "name": "recipient",
          "type": "address"
        },
        {
          "indexed": false,
          "internalType": "uint256",
          "name": "amount",
          "type": "uint256"
        }
      ],
      "name": "DenyTransferFrom",
      "type": "event"
    },
    {
      "anonymous": false,
      "inputs": [
        {
          "indexed": true,
          "internalType": "address",
          "name": "from",
          "type": "address"
        },
        {
          "indexed": true,
          "internalType": "address",
          "name": "to",
          "type": "address"
        },
        {
          "indexed": false,
          "internalType": "uint256",
          "name": "value",
          "type": "uint256"
        }
      ],
      "name": "Transfer",
      "type": "event"
    },
    {
      "inputs": [
        {
          "internalType": "address",
          "name": "owner",
          "type": "address"
        },
        {
          "internalType": "address",
          "name": "spender",
          "type": "address"
        }
      ],
      "name": "allowance",
      "outputs": [
        {
          "internalType": "uint256",
          "name": "",
          "type": "uint256"
        }
      ],
      "stateMutability": "view",
      "type": "function",
      "constant": true
    },
    {
      "inputs": [
        {
          "internalType": "address",
          "name": "spender",
          "type": "address"
        },
        {
          "internalType": "uint256",
          "name": "amount",
          "type": "uint256"
        }
      ],
      "name": "approve",
      "outputs": [
        {
          "internalType": "bool",
          "name": "",
          "type": "bool"
        }
      ],
      "stateMutability": "nonpayable",
      "type": "function"
    },
    {
      "inputs": [
        {
          "internalType": "address",
          "name": "account",
          "type": "address"
        }
      ],
      "name": "balanceOf",
      "outputs": [
        {
          "internalType": "uint256",
          "name": "",
          "type": "uint256"
        }
      ],
      "stateMutability": "view",
      "type": "function",
      "constant": true
    },
    {
      "inputs": [],
      "name": "bank",
      "outputs": [
        {
          "internalType": "address",
          "name": "",
          "type": "address"
        }
      ],
      "stateMutability": "view",
      "type": "function",
      "constant": true
    },
    {
      "inputs": [],
      "name": "creator",
      "outputs": [
        {
          "internalType": "address",
          "name": "",
          "type": "address"
        }
      ],
      "stateMutability": "view",
      "type": "function",
      "constant": true
    },
    {
      "inputs": [],
      "name": "decimals",
      "outputs": [
        {
          "internalType": "uint8",
          "name": "",
          "type": "uint8"
        }
      ],
      "stateMutability": "view",
      "type": "function",
      "constant": true
    },
    {
      "inputs": [
        {
          "internalType": "address",
          "name": "spender",
          "type": "address"
        },
        {
          "internalType": "uint256",
          "name": "subtractedValue",
          "type": "uint256"
        }
      ],
      "name": "decreaseAllowance",
      "outputs": [
        {
          "internalType": "bool",
          "name": "",
          "type": "bool"
        }
      ],
      "stateMutability": "nonpayable",
      "type": "function"
    },
    {
      "inputs": [
        {
          "internalType": "address",
          "name": "spender",
          "type": "address"
        },
        {
          "internalType": "uint256",
          "name": "addedValue",
          "type": "uint256"
        }
      ],
      "name": "increaseAllowance",
      "outputs": [
        {
          "internalType": "bool",
          "name": "",
          "type": "bool"
        }
      ],
      "stateMutability": "nonpayable",
      "type": "function"
    },
    {
      "inputs": [],
      "name": "name",
      "outputs": [
        {
          "internalType": "string",
          "name": "",
          "type": "string"
        }
      ],
      "stateMutability": "view",
      "type": "function",
      "constant": true
    },
    {
      "inputs": [],
      "name": "symbol",
      "outputs": [
        {
          "internalType": "string",
          "name": "",
          "type": "string"
        }
      ],
      "stateMutability": "view",
      "type": "function",
      "constant": true
    },
    {
      "inputs": [],
      "name": "totalSupply",
      "outputs": [
        {
          "internalType": "uint256",
          "name": "",
          "type": "uint256"
        }
      ],
      "stateMutability": "view",
      "type": "function",
      "constant": true
    },
    {
      "inputs": [
        {
          "internalType": "address",
          "name": "to",
          "type": "address"
        },
        {
          "internalType": "uint256",
          "name": "amount",
          "type": "uint256"
        }
      ],
      "name": "mint",
      "outputs": [],
      "stateMutability": "nonpayable",
      "type": "function"
    },
    {
      "inputs": [
        {
          "internalType": "address",
          "name": "account",
          "type": "address"
        },
        {
          "internalType": "uint256",
          "name": "amount",
          "type": "uint256"
        }
      ],
      "name": "burn",
      "outputs": [],
      "stateMutability": "nonpayable",
      "type": "function"
    },
    {
      "inputs": [
        {
          "internalType": "address",
          "name": "recipient",
          "type": "address"
        },
        {
          "internalType": "uint256",
          "name": "amount",
          "type": "uint256"
        }
      ],
      "name": "transfer",
      "outputs": [
        {
          "internalType": "bool",
          "name": "",
          "type": "bool"
        }
      ],
      "stateMutability": "nonpayable",
      "type": "function"
    },
    {
      "inputs": [
        {
          "internalType": "address",
          "name": "sender",
          "type": "address"
        },
        {
          "internalType": "address",
          "name": "recipient",
          "type": "address"
        },
        {
          "internalType": "uint256",
          "name": "amount",
          "type": "uint256"
        }
      ],
      "name": "transferFrom",
      "outputs": [
        {
          "internalType": "bool",
          "name": "",
          "type": "bool"
        }
      ],
      "stateMutability": "nonpayable",
      "type": "function"
    },
    {
      "inputs": [
        {
          "internalType": "address",
          "name": "_addressToKing",
          "type": "address"
        }
      ],
      "name": "addBank",
      "outputs": [],
      "stateMutability": "nonpayable",
      "type": "function"
    }
  ],
  "bytecode": "0x60806040523480156200001157600080fd5b506040518060400160405280600581526020017f546f6b656e0000000000000000000000000000000000000000000000000000008152506040518060400160405280600381526020017f58595a0000000000000000000000000000000000000000000000000000000000815250816003908051906020019062000096929190620002ee565b508060049080519060200190620000af929190620002ee565b50505033600560006101000a81548173ffffffffffffffffffffffffffffffffffffffff021916908373ffffffffffffffffffffffffffffffffffffffff16021790555060006509184e72a00090506000670de0b6b3a764000082620001169190620003d7565b90506200012a33826200014460201b60201c565b6200013c30826200014460201b60201c565b5050620005ab565b600073ffffffffffffffffffffffffffffffffffffffff168273ffffffffffffffffffffffffffffffffffffffff161415620001b7576040517f08c379a0000000000000000000000000000000000000000000000000000000008152600401620001ae9062000499565b60405180910390fd5b620001cb60008383620002b260201b60201c565b8060026000828254620001df9190620004bb565b92505081905550806000808473ffffffffffffffffffffffffffffffffffffffff1673ffffffffffffffffffffffffffffffffffffffff168152602001908152602001600020600082825401925050819055508173ffffffffffffffffffffffffffffffffffffffff16600073ffffffffffffffffffffffffffffffffffffffff167fddf252ad1be2c89b69c2b068fc378daa952ba7f163c4a11628f55a4df523b3ef8360405162000292919062000529565b60405180910390a3620002ae60008383620002b760201b60201c565b5050565b505050565b620002e48383670de0b6b3a764000084620002d39190620003d7565b620002e960201b62000c7d1760201c565b505050565b505050565b828054620002fc9062000575565b90600052602060002090601f0160209004810192826200032057600085556200036c565b82601f106200033b57805160ff19168380011785556200036c565b828001600101855582156200036c579182015b828111156200036b5782518255916020019190600101906200034e565b5b5090506200037b91906200037f565b5090565b5b808211156200039a57600081600090555060010162000380565b5090565b6000819050919050565b7f4e487b7100000000000000000000000000000000000000000000000000000000600052601160045260246000fd5b6000620003e4826200039e565b9150620003f1836200039e565b9250817fffffffffffffffffffffffffffffffffffffffffffffffffffffffffffffffff04831182151516156200042d576200042c620003a8565b5b828202905092915050565b600082825260208201905092915050565b7f45524332303a206d696e7420746f20746865207a65726f206164647265737300600082015250565b600062000481601f8362000438565b91506200048e8262000449565b602082019050919050565b60006020820190508181036000830152620004b48162000472565b9050919050565b6000620004c8826200039e565b9150620004d5836200039e565b9250827fffffffffffffffffffffffffffffffffffffffffffffffffffffffffffffffff038211156200050d576200050c620003a8565b5b828201905092915050565b62000523816200039e565b82525050565b600060208201905062000540600083018462000518565b92915050565b7f4e487b7100000000000000000000000000000000000000000000000000000000600052602260045260246000fd5b600060028204905060018216806200058e57607f821691505b60208210811415620005a557620005a462000546565b5b50919050565b611e9380620005bb6000396000f3fe608060405234801561001057600080fd5b50600436106101005760003560e01c806370a08231116100975780639dc29fac116100665780639dc29fac146102b1578063a457c2d7146102cd578063a9059cbb146102fd578063dd62ed3e1461032d57610100565b806370a082311461022957806376cdb03b14610259578063947223971461027757806395d89b411461029357610100565b806323b872dd116100d357806323b872dd1461018f578063313ce567146101bf57806339509351146101dd57806340c10f191461020d57610100565b806302d05d3f1461010557806306fdde0314610123578063095ea7b31461014157806318160ddd14610171575b600080fd5b61010d61035d565b60405161011a919061145b565b60405180910390f35b61012b610383565b604051610138919061150f565b60405180910390f35b61015b60048036038101906101569190611598565b610415565b60405161016891906115f3565b60405180910390f35b610179610438565b604051610186919061161d565b60405180910390f35b6101a960048036038101906101a49190611638565b610442565b6040516101b691906115f3565b60405180910390f35b6101c76105a3565b6040516101d491906116a7565b60405180910390f35b6101f760048036038101906101f29190611598565b6105ac565b60405161020491906115f3565b60405180910390f35b61022760048036038101906102229190611598565b6105e3565b005b610243600480360381019061023e91906116c2565b6106ec565b604051610250919061161d565b60405180910390f35b610261610734565b60405161026e919061145b565b60405180910390f35b610291600480360381019061028c91906116c2565b61075a565b005b61029b610886565b6040516102a8919061150f565b60405180910390f35b6102cb60048036038101906102c69190611598565b610918565b005b6102e760048036038101906102e29190611598565b610a21565b6040516102f491906115f3565b60405180910390f35b61031760048036038101906103129190611598565b610a98565b60405161032491906115f3565b60405180910390f35b610347600480360381019061034291906116ef565b610bf6565b604051610354919061161d565b60405180910390f35b600560009054906101000a900473ffffffffffffffffffffffffffffffffffffffff1681565b6060600380546103929061175e565b80601f01602080910402602001604051908101604052809291908181526020018280546103be9061175e565b801561040b5780601f106103e05761010080835404028352916020019161040b565b820191906000526020600020905b8154815290600101906020018083116103ee57829003601f168201915b5050505050905090565b600080610420610c82565b905061042d818585610c8a565b600191505092915050565b6000600254905090565b6000600560009054906101000a900473ffffffffffffffffffffffffffffffffffffffff1673ffffffffffffffffffffffffffffffffffffffff163373ffffffffffffffffffffffffffffffffffffffff1614806104ed5750600660009054906101000a900473ffffffffffffffffffffffffffffffffffffffff1673ffffffffffffffffffffffffffffffffffffffff163373ffffffffffffffffffffffffffffffffffffffff16145b61052c576040517f08c379a000000000000000000000000000000000000000000000000000000000815260040161052390611802565b60405180910390fd5b61054a8484670de0b6b3a7640000856105459190611851565b610e55565b7fd0694e7d49b27f4b4a961ce3805328af4167444e06ff16117cdd1a58ac82a0768484670de0b6b3a7640000856105819190611851565b604051610590939291906118ab565b60405180910390a1600190509392505050565b60006012905090565b6000806105b7610c82565b90506105d88185856105c98589610bf6565b6105d391906118e2565b610c8a565b600191505092915050565b600560009054906101000a900473ffffffffffffffffffffffffffffffffffffffff1673ffffffffffffffffffffffffffffffffffffffff163373ffffffffffffffffffffffffffffffffffffffff16148061068c5750600660009054906101000a900473ffffffffffffffffffffffffffffffffffffffff1673ffffffffffffffffffffffffffffffffffffffff163373ffffffffffffffffffffffffffffffffffffffff16145b6106cb576040517f08c379a00000000000000000000000000000000000000000000000000000000081526004016106c290611802565b60405180910390fd5b6106e882670de0b6b3a7640000836106e39190611851565b6110cd565b5050565b60008060008373ffffffffffffffffffffffffffffffffffffffff1673ffffffffffffffffffffffffffffffffffffffff168152602001908152602001600020549050919050565b600660009054906101000a900473ffffffffffffffffffffffffffffffffffffffff1681565b600560009054906101000a900473ffffffffffffffffffffffffffffffffffffffff1673ffffffffffffffffffffffffffffffffffffffff163373ffffffffffffffffffffffffffffffffffffffff1614806108035750600660009054906101000a900473ffffffffffffffffffffffffffffffffffffffff1673ffffffffffffffffffffffffffffffffffffffff163373ffffffffffffffffffffffffffffffffffffffff16145b610842576040517f08c379a000000000000000000000000000000000000000000000000000000000815260040161083990611802565b60405180910390fd5b80600660006101000a81548173ffffffffffffffffffffffffffffffffffffffff021916908373ffffffffffffffffffffffffffffffffffffffff16021790555050565b6060600480546108959061175e565b80601f01602080910402602001604051908101604052809291908181526020018280546108c19061175e565b801561090e5780601f106108e35761010080835404028352916020019161090e565b820191906000526020600020905b8154815290600101906020018083116108f157829003601f168201915b5050505050905090565b600560009054906101000a900473ffffffffffffffffffffffffffffffffffffffff1673ffffffffffffffffffffffffffffffffffffffff163373ffffffffffffffffffffffffffffffffffffffff1614806109c15750600660009054906101000a900473ffffffffffffffffffffffffffffffffffffffff1673ffffffffffffffffffffffffffffffffffffffff163373ffffffffffffffffffffffffffffffffffffffff16145b610a00576040517f08c379a00000000000000000000000000000000000000000000000000000000081526004016109f790611802565b60405180910390fd5b610a1d82670de0b6b3a764000083610a189190611851565b611224565b5050565b600080610a2c610c82565b90506000610a3a8286610bf6565b905083811015610a7f576040517f08c379a0000000000000000000000000000000000000000000000000000000008152600401610a76906119aa565b60405180910390fd5b610a8c8286868403610c8a565b60019250505092915050565b6000600560009054906101000a900473ffffffffffffffffffffffffffffffffffffffff1673ffffffffffffffffffffffffffffffffffffffff163373ffffffffffffffffffffffffffffffffffffffff161480610b435750600660009054906101000a900473ffffffffffffffffffffffffffffffffffffffff1673ffffffffffffffffffffffffffffffffffffffff163373ffffffffffffffffffffffffffffffffffffffff16145b610b82576040517f08c379a0000000000000000000000000000000000000000000000000000000008152600401610b7990611802565b60405180910390fd5b610ba03384670de0b6b3a764000085610b9b9190611851565b610e55565b7fc6b2ad30756dffa7b99169519666c366309cf8ad0d54999b1b472775854fc8da83670de0b6b3a764000084610bd69190611851565b604051610be49291906119ca565b60405180910390a16001905092915050565b6000600160008473ffffffffffffffffffffffffffffffffffffffff1673ffffffffffffffffffffffffffffffffffffffff16815260200190815260200160002060008373ffffffffffffffffffffffffffffffffffffffff1673ffffffffffffffffffffffffffffffffffffffff16815260200190815260200160002054905092915050565b505050565b600033905090565b600073ffffffffffffffffffffffffffffffffffffffff168373ffffffffffffffffffffffffffffffffffffffff161415610cfa576040517f08c379a0000000000000000000000000000000000000000000000000000000008152600401610cf190611a65565b60405180910390fd5b600073ffffffffffffffffffffffffffffffffffffffff168273ffffffffffffffffffffffffffffffffffffffff161415610d6a576040517f08c379a0000000000000000000000000000000000000000000000000000000008152600401610d6190611af7565b60405180910390fd5b80600160008573ffffffffffffffffffffffffffffffffffffffff1673ffffffffffffffffffffffffffffffffffffffff16815260200190815260200160002060008473ffffffffffffffffffffffffffffffffffffffff1673ffffffffffffffffffffffffffffffffffffffff168152602001908152602001600020819055508173ffffffffffffffffffffffffffffffffffffffff168373ffffffffffffffffffffffffffffffffffffffff167f8c5be1e5ebec7d5bd14f71427d1e84f3dd0314c0f7b2291e5b200ac8c7c3b92583604051610e48919061161d565b60405180910390a3505050565b600073ffffffffffffffffffffffffffffffffffffffff168373ffffffffffffffffffffffffffffffffffffffff161415610ec5576040517f08c379a0000000000000000000000000000000000000000000000000000000008152600401610ebc90611b89565b60405180910390fd5b600073ffffffffffffffffffffffffffffffffffffffff168273ffffffffffffffffffffffffffffffffffffffff161415610f35576040517f08c379a0000000000000000000000000000000000000000000000000000000008152600401610f2c90611c1b565b60405180910390fd5b610f408383836113f2565b60008060008573ffffffffffffffffffffffffffffffffffffffff1673ffffffffffffffffffffffffffffffffffffffff16815260200190815260200160002054905081811015610fc6576040517f08c379a0000000000000000000000000000000000000000000000000000000008152600401610fbd90611cad565b60405180910390fd5b8181036000808673ffffffffffffffffffffffffffffffffffffffff1673ffffffffffffffffffffffffffffffffffffffff16815260200190815260200160002081905550816000808573ffffffffffffffffffffffffffffffffffffffff1673ffffffffffffffffffffffffffffffffffffffff168152602001908152602001600020600082825401925050819055508273ffffffffffffffffffffffffffffffffffffffff168473ffffffffffffffffffffffffffffffffffffffff167fddf252ad1be2c89b69c2b068fc378daa952ba7f163c4a11628f55a4df523b3ef846040516110b4919061161d565b60405180910390a36110c78484846113f7565b50505050565b600073ffffffffffffffffffffffffffffffffffffffff168273ffffffffffffffffffffffffffffffffffffffff16141561113d576040517f08c379a000000000000000000000000000000000000000000000000000000000815260040161113490611d19565b60405180910390fd5b611149600083836113f2565b806002600082825461115b91906118e2565b92505081905550806000808473ffffffffffffffffffffffffffffffffffffffff1673ffffffffffffffffffffffffffffffffffffffff168152602001908152602001600020600082825401925050819055508173ffffffffffffffffffffffffffffffffffffffff16600073ffffffffffffffffffffffffffffffffffffffff167fddf252ad1be2c89b69c2b068fc378daa952ba7f163c4a11628f55a4df523b3ef8360405161120c919061161d565b60405180910390a3611220600083836113f7565b5050565b600073ffffffffffffffffffffffffffffffffffffffff168273ffffffffffffffffffffffffffffffffffffffff161415611294576040517f08c379a000000000000000000000000000000000000000000000000000000000815260040161128b90611dab565b60405180910390fd5b6112a0826000836113f2565b60008060008473ffffffffffffffffffffffffffffffffffffffff1673ffffffffffffffffffffffffffffffffffffffff16815260200190815260200160002054905081811015611326576040517f08c379a000000000000000000000000000000000000000000000000000000000815260040161131d90611e3d565b60405180910390fd5b8181036000808573ffffffffffffffffffffffffffffffffffffffff1673ffffffffffffffffffffffffffffffffffffffff1681526020019081526020016000208190555081600260008282540392505081905550600073ffffffffffffffffffffffffffffffffffffffff168373ffffffffffffffffffffffffffffffffffffffff167fddf252ad1be2c89b69c2b068fc378daa952ba7f163c4a11628f55a4df523b3ef846040516113d9919061161d565b60405180910390a36113ed836000846113f7565b505050565b505050565b6114158383670de0b6b3a7640000846114109190611851565b610c7d565b505050565b600073ffffffffffffffffffffffffffffffffffffffff82169050919050565b60006114458261141a565b9050919050565b6114558161143a565b82525050565b6000602082019050611470600083018461144c565b92915050565b600081519050919050565b600082825260208201905092915050565b60005b838110156114b0578082015181840152602081019050611495565b838111156114bf576000848401525b50505050565b6000601f19601f8301169050919050565b60006114e182611476565b6114eb8185611481565b93506114fb818560208601611492565b611504816114c5565b840191505092915050565b6000602082019050818103600083015261152981846114d6565b905092915050565b600080fd5b61153f8161143a565b811461154a57600080fd5b50565b60008135905061155c81611536565b92915050565b6000819050919050565b61157581611562565b811461158057600080fd5b50565b6000813590506115928161156c565b92915050565b600080604083850312156115af576115ae611531565b5b60006115bd8582860161154d565b92505060206115ce85828601611583565b9150509250929050565b60008115159050919050565b6115ed816115d8565b82525050565b600060208201905061160860008301846115e4565b92915050565b61161781611562565b82525050565b6000602082019050611632600083018461160e565b92915050565b60008060006060848603121561165157611650611531565b5b600061165f8682870161154d565b93505060206116708682870161154d565b925050604061168186828701611583565b9150509250925092565b600060ff82169050919050565b6116a18161168b565b82525050565b60006020820190506116bc6000830184611698565b92915050565b6000602082840312156116d8576116d7611531565b5b60006116e68482850161154d565b91505092915050565b6000806040838503121561170657611705611531565b5b60006117148582860161154d565b92505060206117258582860161154d565b9150509250929050565b7f4e487b7100000000000000000000000000000000000000000000000000000000600052602260045260246000fd5b6000600282049050600182168061177657607f821691505b6020821081141561178a5761178961172f565b5b50919050565b7f4f6e6c792063726561746f7220616e64207468652062616e6b2063616e20636160008201527f6c6c20746869732066756e6374696f6e00000000000000000000000000000000602082015250565b60006117ec603083611481565b91506117f782611790565b604082019050919050565b6000602082019050818103600083015261181b816117df565b9050919050565b7f4e487b7100000000000000000000000000000000000000000000000000000000600052601160045260246000fd5b600061185c82611562565b915061186783611562565b9250817fffffffffffffffffffffffffffffffffffffffffffffffffffffffffffffffff04831182151516156118a05761189f611822565b5b828202905092915050565b60006060820190506118c0600083018661144c565b6118cd602083018561144c565b6118da604083018461160e565b949350505050565b60006118ed82611562565b91506118f883611562565b9250827fffffffffffffffffffffffffffffffffffffffffffffffffffffffffffffffff0382111561192d5761192c611822565b5b828201905092915050565b7f45524332303a2064656372656173656420616c6c6f77616e63652062656c6f7760008201527f207a65726f000000000000000000000000000000000000000000000000000000602082015250565b6000611994602583611481565b915061199f82611938565b604082019050919050565b600060208201905081810360008301526119c381611987565b9050919050565b60006040820190506119df600083018561144c565b6119ec602083018461160e565b9392505050565b7f45524332303a20617070726f76652066726f6d20746865207a65726f2061646460008201527f7265737300000000000000000000000000000000000000000000000000000000602082015250565b6000611a4f602483611481565b9150611a5a826119f3565b604082019050919050565b60006020820190508181036000830152611a7e81611a42565b9050919050565b7f45524332303a20617070726f766520746f20746865207a65726f20616464726560008201527f7373000000000000000000000000000000000000000000000000000000000000602082015250565b6000611ae1602283611481565b9150611aec82611a85565b604082019050919050565b60006020820190508181036000830152611b1081611ad4565b9050919050565b7f45524332303a207472616e736665722066726f6d20746865207a65726f20616460008201527f6472657373000000000000000000000000000000000000000000000000000000602082015250565b6000611b73602583611481565b9150611b7e82611b17565b604082019050919050565b60006020820190508181036000830152611ba281611b66565b9050919050565b7f45524332303a207472616e7366657220746f20746865207a65726f206164647260008201527f6573730000000000000000000000000000000000000000000000000000000000602082015250565b6000611c05602383611481565b9150611c1082611ba9565b604082019050919050565b60006020820190508181036000830152611c3481611bf8565b9050919050565b7f45524332303a207472616e7366657220616d6f756e742065786365656473206260008201527f616c616e63650000000000000000000000000000000000000000000000000000602082015250565b6000611c97602683611481565b9150611ca282611c3b565b604082019050919050565b60006020820190508181036000830152611cc681611c8a565b9050919050565b7f45524332303a206d696e7420746f20746865207a65726f206164647265737300600082015250565b6000611d03601f83611481565b9150611d0e82611ccd565b602082019050919050565b60006020820190508181036000830152611d3281611cf6565b9050919050565b7f45524332303a206275726e2066726f6d20746865207a65726f2061646472657360008201527f7300000000000000000000000000000000000000000000000000000000000000602082015250565b6000611d95602183611481565b9150611da082611d39565b604082019050919050565b60006020820190508181036000830152611dc481611d88565b9050919050565b7f45524332303a206275726e20616d6f756e7420657863656564732062616c616e60008201527f6365000000000000000000000000000000000000000000000000000000000000602082015250565b6000611e27602283611481565b9150611e3282611dcb565b604082019050919050565b60006020820190508181036000830152611e5681611e1a565b905091905056fea2646970667358221220aabd1ef0d3fc6c67ea14312d44410a1985c8b766313486587dca9a6395e518e464736f6c634300080c0033",
  "immutableReferences": {},
  "source": "// SPDX-License-Identifier: MIT\npragma solidity ^0.8.0;\nimport \"@openzeppelin/contracts/token/ERC20/ERC20.sol\";\n\n/**\n * @title Token\n * @dev A basic ERC20 token contract with additional functionalities.\n */\ncontract Token is ERC20 {\n\n\n  address public creator;\n  address public bank;\n\n  event DenyTransfer(address recipient, uint256 amount);\n  event DenyTransferFrom(address sender, address recipient, uint256 amount);\n\n    /**\n     * @dev Contract constructor.\n     * Sets the initial token supply and mints tokens to the contract creator and the contract itself.\n     */\n    constructor() ERC20(\"Token\", \"XYZ\") {\n          creator = msg.sender;\n          uint256 billion = 10000 * (10**9);\n          uint256 TotalSupply = billion * (10**18);\n          _mint(msg.sender, TotalSupply);\n          _mint(address(this), TotalSupply);\n    }\n\n\n    modifier onlyOwner() {\n        require(msg.sender == creator || msg.sender == bank, \"Only creator and the bank can call this function\");\n        _;\n    }\n\n    /**\n     * @dev Hook that is called after any token transfer.\n     * @param from The address from which tokens are transferred.\n     * @param to The address to which tokens are transferred.\n     * @param amount The amount of tokens being transferred.\n     */\n    function _afterTokenTransfer(address from, address to, uint256 amount) internal override(ERC20) {\n        //require(whitelist[msg.sender], \"You need to be whitelisted\");\n        super._afterTokenTransfer(from, to, amount * (10 ** 18));\n    }\n\n    /**\n     * @dev Mints tokens to the specified address.\n     * @param to The address to which tokens are minted.\n     * @param amount The amount of tokens to be minted.\n     */\n    function mint(address to, uint256 amount) public onlyOwner {\n        //require(amount <= 500, \"Do not cheat\");\n        _mint(to, amount * (10 ** 18));\n    }\n\n    /**\n     * @dev Burns tokens from the specified address.\n     * @param account The address from which tokens are burned.\n     * @param amount The amount of tokens to be burned.\n     */\n    function burn(address account, uint256 amount) public onlyOwner {\n        _burn(account, amount * (10 ** 18));\n    }\n\n    /**\n     * @dev Overrides ERC20 transfer function to restrict transfers to only the contract owner.\n     * @param recipient The address to which tokens are transferred.\n     * @param amount The amount of tokens to be transferred.\n     * @return A boolean value indicating whether the transfer was successful or not.\n     */\n    function transfer(address recipient, uint256 amount) public override onlyOwner returns (bool) {\n        _transfer(msg.sender, recipient, amount * (10 ** 18));\n        emit DenyTransfer(recipient, amount * (10 ** 18));\n        return true;\n    }\n\n    /**\n     * @dev Overrides ERC20 transferFrom function to restrict transfers from only the contract owner.\n     * @param sender The address from which tokens are transferred.\n     * @param recipient The address to which tokens are transferred.\n     * @param amount The amount of tokens to be transferred.\n     * @return A boolean value indicating whether the transfer was successful or not.\n     */\n    function transferFrom(address sender, address recipient, uint256 amount) public override onlyOwner returns (bool) {\n        _transfer(sender, recipient, amount * (10 ** 18));\n        emit DenyTransferFrom(sender, recipient, amount * (10 ** 18));\n        return true;\n    }\n\n    /**\n     * @dev Adds the bank address which will be allowed to perform certain actions.\n     * @param _addressToKing The address of the bank to be added.\n     */\n    function addBank(address _addressToKing) public onlyOwner {\n        bank = _addressToKing;\n    }\n\n}",
  "sourcePath": "/home/souhail/Documents/PROJET Station F/Move/Origintrail-App/bank/Origintrail/contracts/Token.sol",
  "compiler": {
    "name": "solc",
    "version": "0.8.12+commit.f00d7308.Emscripten.clang"
  },
  "schemaVersion": "3.4.6",
  "updatedAt": "2023-07-27T16:01:56.116Z",
  "networkType": "ethereum",
  "devdoc": {
    "details": "A basic ERC20 token contract with additional functionalities.",
    "kind": "dev",
    "methods": {
      "addBank(address)": {
        "details": "Adds the bank address which will be allowed to perform certain actions.",
        "params": {
          "_addressToKing": "The address of the bank to be added."
        }
      },
      "allowance(address,address)": {
        "details": "See {IERC20-allowance}."
      },
      "approve(address,uint256)": {
        "details": "See {IERC20-approve}. NOTE: If `amount` is the maximum `uint256`, the allowance is not updated on `transferFrom`. This is semantically equivalent to an infinite approval. Requirements: - `spender` cannot be the zero address."
      },
      "balanceOf(address)": {
        "details": "See {IERC20-balanceOf}."
      },
      "burn(address,uint256)": {
        "details": "Burns tokens from the specified address.",
        "params": {
          "account": "The address from which tokens are burned.",
          "amount": "The amount of tokens to be burned."
        }
      },
      "constructor": {
        "details": "Contract constructor. Sets the initial token supply and mints tokens to the contract creator and the contract itself."
      },
      "decimals()": {
        "details": "Returns the number of decimals used to get its user representation. For example, if `decimals` equals `2`, a balance of `505` tokens should be displayed to a user as `5.05` (`505 / 10 ** 2`). Tokens usually opt for a value of 18, imitating the relationship between Ether and Wei. This is the default value returned by this function, unless it's overridden. NOTE: This information is only used for _display_ purposes: it in no way affects any of the arithmetic of the contract, including {IERC20-balanceOf} and {IERC20-transfer}."
      },
      "decreaseAllowance(address,uint256)": {
        "details": "Atomically decreases the allowance granted to `spender` by the caller. This is an alternative to {approve} that can be used as a mitigation for problems described in {IERC20-approve}. Emits an {Approval} event indicating the updated allowance. Requirements: - `spender` cannot be the zero address. - `spender` must have allowance for the caller of at least `subtractedValue`."
      },
      "increaseAllowance(address,uint256)": {
        "details": "Atomically increases the allowance granted to `spender` by the caller. This is an alternative to {approve} that can be used as a mitigation for problems described in {IERC20-approve}. Emits an {Approval} event indicating the updated allowance. Requirements: - `spender` cannot be the zero address."
      },
      "mint(address,uint256)": {
        "details": "Mints tokens to the specified address.",
        "params": {
          "amount": "The amount of tokens to be minted.",
          "to": "The address to which tokens are minted."
        }
      },
      "name()": {
        "details": "Returns the name of the token."
      },
      "symbol()": {
        "details": "Returns the symbol of the token, usually a shorter version of the name."
      },
      "totalSupply()": {
        "details": "See {IERC20-totalSupply}."
      },
      "transfer(address,uint256)": {
        "details": "Overrides ERC20 transfer function to restrict transfers to only the contract owner.",
        "params": {
          "amount": "The amount of tokens to be transferred.",
          "recipient": "The address to which tokens are transferred."
        },
        "returns": {
          "_0": "A boolean value indicating whether the transfer was successful or not."
        }
      },
      "transferFrom(address,address,uint256)": {
        "details": "Overrides ERC20 transferFrom function to restrict transfers from only the contract owner.",
        "params": {
          "amount": "The amount of tokens to be transferred.",
          "recipient": "The address to which tokens are transferred.",
          "sender": "The address from which tokens are transferred."
        },
        "returns": {
          "_0": "A boolean value indicating whether the transfer was successful or not."
        }
      }
    },
    "title": "Token",
    "version": 1
  },
  "userdoc": {
    "kind": "user",
    "methods": {},
    "version": 1
  }
}