{
  "contractName": "Token",
  "abi": [
    {
      "inputs": [],
      "stateMutability": "nonpayable",
      "type": "constructor"
    },
    {
      "anonymous": false,
      "inputs": [
        {
          "indexed": true,
          "internalType": "address",
          "name": "owner",
          "type": "address"
        },
        {
          "indexed": true,
          "internalType": "address",
          "name": "spender",
          "type": "address"
        },
        {
          "indexed": false,
          "internalType": "uint256",
          "name": "value",
          "type": "uint256"
        }
      ],
      "name": "Approval",
      "type": "event"
    },
    {
      "anonymous": false,
      "inputs": [
        {
          "indexed": false,
          "internalType": "address",
          "name": "recipient",
          "type": "address"
        },
        {
          "indexed": false,
          "internalType": "uint256",
          "name": "amount",
          "type": "uint256"
        }
      ],
      "name": "DenyTransfer",
      "type": "event"
    },
    {
      "anonymous": false,
      "inputs": [
        {
          "indexed": false,
          "internalType": "address",
          "name": "sender",
          "type": "address"
        },
        {
          "indexed": false,
          "internalType": "address",
          "name": "recipient",
          "type": "address"
        },
        {
          "indexed": false,
          "internalType": "uint256",
          "name": "amount",
          "type": "uint256"
        }
      ],
      "name": "DenyTransferFrom",
      "type": "event"
    },
    {
      "anonymous": false,
      "inputs": [
        {
          "indexed": true,
          "internalType": "address",
          "name": "from",
          "type": "address"
        },
        {
          "indexed": true,
          "internalType": "address",
          "name": "to",
          "type": "address"
        },
        {
          "indexed": false,
          "internalType": "uint256",
          "name": "value",
          "type": "uint256"
        }
      ],
      "name": "Transfer",
      "type": "event"
    },
    {
      "inputs": [
        {
          "internalType": "address",
          "name": "owner",
          "type": "address"
        },
        {
          "internalType": "address",
          "name": "spender",
          "type": "address"
        }
      ],
      "name": "allowance",
      "outputs": [
        {
          "internalType": "uint256",
          "name": "",
          "type": "uint256"
        }
      ],
      "stateMutability": "view",
      "type": "function",
      "constant": true
    },
    {
      "inputs": [
        {
          "internalType": "address",
          "name": "spender",
          "type": "address"
        },
        {
          "internalType": "uint256",
          "name": "amount",
          "type": "uint256"
        }
      ],
      "name": "approve",
      "outputs": [
        {
          "internalType": "bool",
          "name": "",
          "type": "bool"
        }
      ],
      "stateMutability": "nonpayable",
      "type": "function"
    },
    {
      "inputs": [
        {
          "internalType": "address",
          "name": "account",
          "type": "address"
        }
      ],
      "name": "balanceOf",
      "outputs": [
        {
          "internalType": "uint256",
          "name": "",
          "type": "uint256"
        }
      ],
      "stateMutability": "view",
      "type": "function",
      "constant": true
    },
    {
      "inputs": [],
      "name": "bank",
      "outputs": [
        {
          "internalType": "address",
          "name": "",
          "type": "address"
        }
      ],
      "stateMutability": "view",
      "type": "function",
      "constant": true
    },
    {
      "inputs": [],
      "name": "creator",
      "outputs": [
        {
          "internalType": "address",
          "name": "",
          "type": "address"
        }
      ],
      "stateMutability": "view",
      "type": "function",
      "constant": true
    },
    {
      "inputs": [],
      "name": "decimals",
      "outputs": [
        {
          "internalType": "uint8",
          "name": "",
          "type": "uint8"
        }
      ],
      "stateMutability": "view",
      "type": "function",
      "constant": true
    },
    {
      "inputs": [
        {
          "internalType": "address",
          "name": "spender",
          "type": "address"
        },
        {
          "internalType": "uint256",
          "name": "subtractedValue",
          "type": "uint256"
        }
      ],
      "name": "decreaseAllowance",
      "outputs": [
        {
          "internalType": "bool",
          "name": "",
          "type": "bool"
        }
      ],
      "stateMutability": "nonpayable",
      "type": "function"
    },
    {
      "inputs": [
        {
          "internalType": "address",
          "name": "spender",
          "type": "address"
        },
        {
          "internalType": "uint256",
          "name": "addedValue",
          "type": "uint256"
        }
      ],
      "name": "increaseAllowance",
      "outputs": [
        {
          "internalType": "bool",
          "name": "",
          "type": "bool"
        }
      ],
      "stateMutability": "nonpayable",
      "type": "function"
    },
    {
      "inputs": [],
      "name": "name",
      "outputs": [
        {
          "internalType": "string",
          "name": "",
          "type": "string"
        }
      ],
      "stateMutability": "view",
      "type": "function",
      "constant": true
    },
    {
      "inputs": [],
      "name": "symbol",
      "outputs": [
        {
          "internalType": "string",
          "name": "",
          "type": "string"
        }
      ],
      "stateMutability": "view",
      "type": "function",
      "constant": true
    },
    {
      "inputs": [],
      "name": "totalSupply",
      "outputs": [
        {
          "internalType": "uint256",
          "name": "",
          "type": "uint256"
        }
      ],
      "stateMutability": "view",
      "type": "function",
      "constant": true
    },
    {
      "inputs": [
        {
          "internalType": "address",
          "name": "to",
          "type": "address"
        },
        {
          "internalType": "uint256",
          "name": "amount",
          "type": "uint256"
        }
      ],
      "name": "mint",
      "outputs": [],
      "stateMutability": "nonpayable",
      "type": "function"
    },
    {
      "inputs": [
        {
          "internalType": "address",
          "name": "account",
          "type": "address"
        },
        {
          "internalType": "uint256",
          "name": "amount",
          "type": "uint256"
        }
      ],
      "name": "burn",
      "outputs": [],
      "stateMutability": "nonpayable",
      "type": "function"
    },
    {
      "inputs": [
        {
          "internalType": "address",
          "name": "recipient",
          "type": "address"
        },
        {
          "internalType": "uint256",
          "name": "amount",
          "type": "uint256"
        }
      ],
      "name": "transfer",
      "outputs": [
        {
          "internalType": "bool",
          "name": "",
          "type": "bool"
        }
      ],
      "stateMutability": "nonpayable",
      "type": "function"
    },
    {
      "inputs": [
        {
          "internalType": "address",
          "name": "sender",
          "type": "address"
        },
        {
          "internalType": "address",
          "name": "recipient",
          "type": "address"
        },
        {
          "internalType": "uint256",
          "name": "amount",
          "type": "uint256"
        }
      ],
      "name": "transferFrom",
      "outputs": [
        {
          "internalType": "bool",
          "name": "",
          "type": "bool"
        }
      ],
      "stateMutability": "nonpayable",
      "type": "function"
    },
    {
      "inputs": [
        {
          "internalType": "address",
          "name": "_addressToKing",
          "type": "address"
        }
      ],
      "name": "addBank",
      "outputs": [],
      "stateMutability": "nonpayable",
      "type": "function"
    }
  ],
  "bytecode": "0x60806040523480156200001157600080fd5b506040518060400160405280600581526020017f546f6b656e0000000000000000000000000000000000000000000000000000008152506040518060400160405280600381526020017f58595a0000000000000000000000000000000000000000000000000000000000815250816003908051906020019062000096929190620002ee565b508060049080519060200190620000af929190620002ee565b50505033600560006101000a81548173ffffffffffffffffffffffffffffffffffffffff021916908373ffffffffffffffffffffffffffffffffffffffff16021790555060006509184e72a00090506000670de0b6b3a764000082620001169190620003d7565b90506200012a33826200014460201b60201c565b6200013c30826200014460201b60201c565b5050620005ab565b600073ffffffffffffffffffffffffffffffffffffffff168273ffffffffffffffffffffffffffffffffffffffff161415620001b7576040517f08c379a0000000000000000000000000000000000000000000000000000000008152600401620001ae9062000499565b60405180910390fd5b620001cb60008383620002b260201b60201c565b8060026000828254620001df9190620004bb565b92505081905550806000808473ffffffffffffffffffffffffffffffffffffffff1673ffffffffffffffffffffffffffffffffffffffff168152602001908152602001600020600082825401925050819055508173ffffffffffffffffffffffffffffffffffffffff16600073ffffffffffffffffffffffffffffffffffffffff167fddf252ad1be2c89b69c2b068fc378daa952ba7f163c4a11628f55a4df523b3ef8360405162000292919062000529565b60405180910390a3620002ae60008383620002b760201b60201c565b5050565b505050565b620002e48383670de0b6b3a764000084620002d39190620003d7565b620002e960201b62000b951760201c565b505050565b505050565b828054620002fc9062000575565b90600052602060002090601f0160209004810192826200032057600085556200036c565b82601f106200033b57805160ff19168380011785556200036c565b828001600101855582156200036c579182015b828111156200036b5782518255916020019190600101906200034e565b5b5090506200037b91906200037f565b5090565b5b808211156200039a57600081600090555060010162000380565b5090565b6000819050919050565b7f4e487b7100000000000000000000000000000000000000000000000000000000600052601160045260246000fd5b6000620003e4826200039e565b9150620003f1836200039e565b9250817fffffffffffffffffffffffffffffffffffffffffffffffffffffffffffffffff04831182151516156200042d576200042c620003a8565b5b828202905092915050565b600082825260208201905092915050565b7f45524332303a206d696e7420746f20746865207a65726f206164647265737300600082015250565b600062000481601f8362000438565b91506200048e8262000449565b602082019050919050565b60006020820190508181036000830152620004b48162000472565b9050919050565b6000620004c8826200039e565b9150620004d5836200039e565b9250827fffffffffffffffffffffffffffffffffffffffffffffffffffffffffffffffff038211156200050d576200050c620003a8565b5b828201905092915050565b62000523816200039e565b82525050565b600060208201905062000540600083018462000518565b92915050565b7f4e487b7100000000000000000000000000000000000000000000000000000000600052602260045260246000fd5b600060028204905060018216806200058e57607f821691505b60208210811415620005a557620005a462000546565b5b50919050565b611dab80620005bb6000396000f3fe608060405234801561001057600080fd5b50600436106101005760003560e01c806370a08231116100975780639dc29fac116100665780639dc29fac146102b1578063a457c2d7146102cd578063a9059cbb146102fd578063dd62ed3e1461032d57610100565b806370a082311461022957806376cdb03b14610259578063947223971461027757806395d89b411461029357610100565b806323b872dd116100d357806323b872dd1461018f578063313ce567146101bf57806339509351146101dd57806340c10f191461020d57610100565b806302d05d3f1461010557806306fdde0314610123578063095ea7b31461014157806318160ddd14610171575b600080fd5b61010d61035d565b60405161011a9190611373565b60405180910390f35b61012b610383565b6040516101389190611427565b60405180910390f35b61015b600480360381019061015691906114b0565b610415565b604051610168919061150b565b60405180910390f35b610179610438565b6040516101869190611535565b60405180910390f35b6101a960048036038101906101a49190611550565b610442565b6040516101b6919061150b565b60405180910390f35b6101c76105a3565b6040516101d491906115bf565b60405180910390f35b6101f760048036038101906101f291906114b0565b6105ac565b604051610204919061150b565b60405180910390f35b610227600480360381019061022291906114b0565b6105e3565b005b610243600480360381019061023e91906115da565b610604565b6040516102509190611535565b60405180910390f35b61026161064c565b60405161026e9190611373565b60405180910390f35b610291600480360381019061028c91906115da565b610672565b005b61029b61079e565b6040516102a89190611427565b60405180910390f35b6102cb60048036038101906102c691906114b0565b610830565b005b6102e760048036038101906102e291906114b0565b610939565b6040516102f4919061150b565b60405180910390f35b610317600480360381019061031291906114b0565b6109b0565b604051610324919061150b565b60405180910390f35b61034760048036038101906103429190611607565b610b0e565b6040516103549190611535565b60405180910390f35b600560009054906101000a900473ffffffffffffffffffffffffffffffffffffffff1681565b60606003805461039290611676565b80601f01602080910402602001604051908101604052809291908181526020018280546103be90611676565b801561040b5780601f106103e05761010080835404028352916020019161040b565b820191906000526020600020905b8154815290600101906020018083116103ee57829003601f168201915b5050505050905090565b600080610420610b9a565b905061042d818585610ba2565b600191505092915050565b6000600254905090565b6000600560009054906101000a900473ffffffffffffffffffffffffffffffffffffffff1673ffffffffffffffffffffffffffffffffffffffff163373ffffffffffffffffffffffffffffffffffffffff1614806104ed5750600660009054906101000a900473ffffffffffffffffffffffffffffffffffffffff1673ffffffffffffffffffffffffffffffffffffffff163373ffffffffffffffffffffffffffffffffffffffff16145b61052c576040517f08c379a00000000000000000000000000000000000000000000000000000000081526004016105239061171a565b60405180910390fd5b61054a8484670de0b6b3a7640000856105459190611769565b610d6d565b7fd0694e7d49b27f4b4a961ce3805328af4167444e06ff16117cdd1a58ac82a0768484670de0b6b3a7640000856105819190611769565b604051610590939291906117c3565b60405180910390a1600190509392505050565b60006012905090565b6000806105b7610b9a565b90506105d88185856105c98589610b0e565b6105d391906117fa565b610ba2565b600191505092915050565b61060082670de0b6b3a7640000836105fb9190611769565b610fe5565b5050565b60008060008373ffffffffffffffffffffffffffffffffffffffff1673ffffffffffffffffffffffffffffffffffffffff168152602001908152602001600020549050919050565b600660009054906101000a900473ffffffffffffffffffffffffffffffffffffffff1681565b600560009054906101000a900473ffffffffffffffffffffffffffffffffffffffff1673ffffffffffffffffffffffffffffffffffffffff163373ffffffffffffffffffffffffffffffffffffffff16148061071b5750600660009054906101000a900473ffffffffffffffffffffffffffffffffffffffff1673ffffffffffffffffffffffffffffffffffffffff163373ffffffffffffffffffffffffffffffffffffffff16145b61075a576040517f08c379a00000000000000000000000000000000000000000000000000000000081526004016107519061171a565b60405180910390fd5b80600660006101000a81548173ffffffffffffffffffffffffffffffffffffffff021916908373ffffffffffffffffffffffffffffffffffffffff16021790555050565b6060600480546107ad90611676565b80601f01602080910402602001604051908101604052809291908181526020018280546107d990611676565b80156108265780601f106107fb57610100808354040283529160200191610826565b820191906000526020600020905b81548152906001019060200180831161080957829003601f168201915b5050505050905090565b600560009054906101000a900473ffffffffffffffffffffffffffffffffffffffff1673ffffffffffffffffffffffffffffffffffffffff163373ffffffffffffffffffffffffffffffffffffffff1614806108d95750600660009054906101000a900473ffffffffffffffffffffffffffffffffffffffff1673ffffffffffffffffffffffffffffffffffffffff163373ffffffffffffffffffffffffffffffffffffffff16145b610918576040517f08c379a000000000000000000000000000000000000000000000000000000000815260040161090f9061171a565b60405180910390fd5b61093582670de0b6b3a7640000836109309190611769565b61113c565b5050565b600080610944610b9a565b905060006109528286610b0e565b905083811015610997576040517f08c379a000000000000000000000000000000000000000000000000000000000815260040161098e906118c2565b60405180910390fd5b6109a48286868403610ba2565b60019250505092915050565b6000600560009054906101000a900473ffffffffffffffffffffffffffffffffffffffff1673ffffffffffffffffffffffffffffffffffffffff163373ffffffffffffffffffffffffffffffffffffffff161480610a5b5750600660009054906101000a900473ffffffffffffffffffffffffffffffffffffffff1673ffffffffffffffffffffffffffffffffffffffff163373ffffffffffffffffffffffffffffffffffffffff16145b610a9a576040517f08c379a0000000000000000000000000000000000000000000000000000000008152600401610a919061171a565b60405180910390fd5b610ab83384670de0b6b3a764000085610ab39190611769565b610d6d565b7fc6b2ad30756dffa7b99169519666c366309cf8ad0d54999b1b472775854fc8da83670de0b6b3a764000084610aee9190611769565b604051610afc9291906118e2565b60405180910390a16001905092915050565b6000600160008473ffffffffffffffffffffffffffffffffffffffff1673ffffffffffffffffffffffffffffffffffffffff16815260200190815260200160002060008373ffffffffffffffffffffffffffffffffffffffff1673ffffffffffffffffffffffffffffffffffffffff16815260200190815260200160002054905092915050565b505050565b600033905090565b600073ffffffffffffffffffffffffffffffffffffffff168373ffffffffffffffffffffffffffffffffffffffff161415610c12576040517f08c379a0000000000000000000000000000000000000000000000000000000008152600401610c099061197d565b60405180910390fd5b600073ffffffffffffffffffffffffffffffffffffffff168273ffffffffffffffffffffffffffffffffffffffff161415610c82576040517f08c379a0000000000000000000000000000000000000000000000000000000008152600401610c7990611a0f565b60405180910390fd5b80600160008573ffffffffffffffffffffffffffffffffffffffff1673ffffffffffffffffffffffffffffffffffffffff16815260200190815260200160002060008473ffffffffffffffffffffffffffffffffffffffff1673ffffffffffffffffffffffffffffffffffffffff168152602001908152602001600020819055508173ffffffffffffffffffffffffffffffffffffffff168373ffffffffffffffffffffffffffffffffffffffff167f8c5be1e5ebec7d5bd14f71427d1e84f3dd0314c0f7b2291e5b200ac8c7c3b92583604051610d609190611535565b60405180910390a3505050565b600073ffffffffffffffffffffffffffffffffffffffff168373ffffffffffffffffffffffffffffffffffffffff161415610ddd576040517f08c379a0000000000000000000000000000000000000000000000000000000008152600401610dd490611aa1565b60405180910390fd5b600073ffffffffffffffffffffffffffffffffffffffff168273ffffffffffffffffffffffffffffffffffffffff161415610e4d576040517f08c379a0000000000000000000000000000000000000000000000000000000008152600401610e4490611b33565b60405180910390fd5b610e5883838361130a565b60008060008573ffffffffffffffffffffffffffffffffffffffff1673ffffffffffffffffffffffffffffffffffffffff16815260200190815260200160002054905081811015610ede576040517f08c379a0000000000000000000000000000000000000000000000000000000008152600401610ed590611bc5565b60405180910390fd5b8181036000808673ffffffffffffffffffffffffffffffffffffffff1673ffffffffffffffffffffffffffffffffffffffff16815260200190815260200160002081905550816000808573ffffffffffffffffffffffffffffffffffffffff1673ffffffffffffffffffffffffffffffffffffffff168152602001908152602001600020600082825401925050819055508273ffffffffffffffffffffffffffffffffffffffff168473ffffffffffffffffffffffffffffffffffffffff167fddf252ad1be2c89b69c2b068fc378daa952ba7f163c4a11628f55a4df523b3ef84604051610fcc9190611535565b60405180910390a3610fdf84848461130f565b50505050565b600073ffffffffffffffffffffffffffffffffffffffff168273ffffffffffffffffffffffffffffffffffffffff161415611055576040517f08c379a000000000000000000000000000000000000000000000000000000000815260040161104c90611c31565b60405180910390fd5b6110616000838361130a565b806002600082825461107391906117fa565b92505081905550806000808473ffffffffffffffffffffffffffffffffffffffff1673ffffffffffffffffffffffffffffffffffffffff168152602001908152602001600020600082825401925050819055508173ffffffffffffffffffffffffffffffffffffffff16600073ffffffffffffffffffffffffffffffffffffffff167fddf252ad1be2c89b69c2b068fc378daa952ba7f163c4a11628f55a4df523b3ef836040516111249190611535565b60405180910390a36111386000838361130f565b5050565b600073ffffffffffffffffffffffffffffffffffffffff168273ffffffffffffffffffffffffffffffffffffffff1614156111ac576040517f08c379a00000000000000000000000000000000000000000000000000000000081526004016111a390611cc3565b60405180910390fd5b6111b88260008361130a565b60008060008473ffffffffffffffffffffffffffffffffffffffff1673ffffffffffffffffffffffffffffffffffffffff1681526020019081526020016000205490508181101561123e576040517f08c379a000000000000000000000000000000000000000000000000000000000815260040161123590611d55565b60405180910390fd5b8181036000808573ffffffffffffffffffffffffffffffffffffffff1673ffffffffffffffffffffffffffffffffffffffff1681526020019081526020016000208190555081600260008282540392505081905550600073ffffffffffffffffffffffffffffffffffffffff168373ffffffffffffffffffffffffffffffffffffffff167fddf252ad1be2c89b69c2b068fc378daa952ba7f163c4a11628f55a4df523b3ef846040516112f19190611535565b60405180910390a36113058360008461130f565b505050565b505050565b61132d8383670de0b6b3a7640000846113289190611769565b610b95565b505050565b600073ffffffffffffffffffffffffffffffffffffffff82169050919050565b600061135d82611332565b9050919050565b61136d81611352565b82525050565b60006020820190506113886000830184611364565b92915050565b600081519050919050565b600082825260208201905092915050565b60005b838110156113c85780820151818401526020810190506113ad565b838111156113d7576000848401525b50505050565b6000601f19601f8301169050919050565b60006113f98261138e565b6114038185611399565b93506114138185602086016113aa565b61141c816113dd565b840191505092915050565b6000602082019050818103600083015261144181846113ee565b905092915050565b600080fd5b61145781611352565b811461146257600080fd5b50565b6000813590506114748161144e565b92915050565b6000819050919050565b61148d8161147a565b811461149857600080fd5b50565b6000813590506114aa81611484565b92915050565b600080604083850312156114c7576114c6611449565b5b60006114d585828601611465565b92505060206114e68582860161149b565b9150509250929050565b60008115159050919050565b611505816114f0565b82525050565b600060208201905061152060008301846114fc565b92915050565b61152f8161147a565b82525050565b600060208201905061154a6000830184611526565b92915050565b60008060006060848603121561156957611568611449565b5b600061157786828701611465565b935050602061158886828701611465565b92505060406115998682870161149b565b9150509250925092565b600060ff82169050919050565b6115b9816115a3565b82525050565b60006020820190506115d460008301846115b0565b92915050565b6000602082840312156115f0576115ef611449565b5b60006115fe84828501611465565b91505092915050565b6000806040838503121561161e5761161d611449565b5b600061162c85828601611465565b925050602061163d85828601611465565b9150509250929050565b7f4e487b7100000000000000000000000000000000000000000000000000000000600052602260045260246000fd5b6000600282049050600182168061168e57607f821691505b602082108114156116a2576116a1611647565b5b50919050565b7f4f6e6c792063726561746f7220616e64207468652062616e6b2063616e20636160008201527f6c6c20746869732066756e6374696f6e00000000000000000000000000000000602082015250565b6000611704603083611399565b915061170f826116a8565b604082019050919050565b60006020820190508181036000830152611733816116f7565b9050919050565b7f4e487b7100000000000000000000000000000000000000000000000000000000600052601160045260246000fd5b60006117748261147a565b915061177f8361147a565b9250817fffffffffffffffffffffffffffffffffffffffffffffffffffffffffffffffff04831182151516156117b8576117b761173a565b5b828202905092915050565b60006060820190506117d86000830186611364565b6117e56020830185611364565b6117f26040830184611526565b949350505050565b60006118058261147a565b91506118108361147a565b9250827fffffffffffffffffffffffffffffffffffffffffffffffffffffffffffffffff038211156118455761184461173a565b5b828201905092915050565b7f45524332303a2064656372656173656420616c6c6f77616e63652062656c6f7760008201527f207a65726f000000000000000000000000000000000000000000000000000000602082015250565b60006118ac602583611399565b91506118b782611850565b604082019050919050565b600060208201905081810360008301526118db8161189f565b9050919050565b60006040820190506118f76000830185611364565b6119046020830184611526565b9392505050565b7f45524332303a20617070726f76652066726f6d20746865207a65726f2061646460008201527f7265737300000000000000000000000000000000000000000000000000000000602082015250565b6000611967602483611399565b91506119728261190b565b604082019050919050565b600060208201905081810360008301526119968161195a565b9050919050565b7f45524332303a20617070726f766520746f20746865207a65726f20616464726560008201527f7373000000000000000000000000000000000000000000000000000000000000602082015250565b60006119f9602283611399565b9150611a048261199d565b604082019050919050565b60006020820190508181036000830152611a28816119ec565b9050919050565b7f45524332303a207472616e736665722066726f6d20746865207a65726f20616460008201527f6472657373000000000000000000000000000000000000000000000000000000602082015250565b6000611a8b602583611399565b9150611a9682611a2f565b604082019050919050565b60006020820190508181036000830152611aba81611a7e565b9050919050565b7f45524332303a207472616e7366657220746f20746865207a65726f206164647260008201527f6573730000000000000000000000000000000000000000000000000000000000602082015250565b6000611b1d602383611399565b9150611b2882611ac1565b604082019050919050565b60006020820190508181036000830152611b4c81611b10565b9050919050565b7f45524332303a207472616e7366657220616d6f756e742065786365656473206260008201527f616c616e63650000000000000000000000000000000000000000000000000000602082015250565b6000611baf602683611399565b9150611bba82611b53565b604082019050919050565b60006020820190508181036000830152611bde81611ba2565b9050919050565b7f45524332303a206d696e7420746f20746865207a65726f206164647265737300600082015250565b6000611c1b601f83611399565b9150611c2682611be5565b602082019050919050565b60006020820190508181036000830152611c4a81611c0e565b9050919050565b7f45524332303a206275726e2066726f6d20746865207a65726f2061646472657360008201527f7300000000000000000000000000000000000000000000000000000000000000602082015250565b6000611cad602183611399565b9150611cb882611c51565b604082019050919050565b60006020820190508181036000830152611cdc81611ca0565b9050919050565b7f45524332303a206275726e20616d6f756e7420657863656564732062616c616e60008201527f6365000000000000000000000000000000000000000000000000000000000000602082015250565b6000611d3f602283611399565b9150611d4a82611ce3565b604082019050919050565b60006020820190508181036000830152611d6e81611d32565b905091905056fea2646970667358221220d001e472472f14a09c5013ffcfd0e3c31890430d72df480d667d263ee4d1e6a164736f6c634300080c0033",
  "immutableReferences": {},
  "source": "// SPDX-License-Identifier: MIT\npragma solidity ^0.8.0;\nimport \"@openzeppelin/contracts/token/ERC20/ERC20.sol\";\n\n/**\n * @title Token\n * @dev A basic ERC20 token contract with additional functionalities.\n */\ncontract Token is ERC20 {\n\n\n  address public creator;\n  address public bank;\n\n  event DenyTransfer(address recipient, uint256 amount);\n  event DenyTransferFrom(address sender, address recipient, uint256 amount);\n\n    /**\n     * @dev Contract constructor.\n     * Sets the initial token supply and mints tokens to the contract creator and the contract itself.\n     */\n    constructor() ERC20(\"Token\", \"XYZ\") {\n          creator = msg.sender;\n          uint256 billion = 10000 * (10**9);\n          uint256 TotalSupply = billion * (10**18);\n          _mint(msg.sender, TotalSupply);\n          _mint(address(this), TotalSupply);\n    }\n\n\n    modifier onlyOwner() {\n        require(msg.sender == creator || msg.sender == bank, \"Only creator and the bank can call this function\");\n        _;\n    }\n\n    /**\n     * @dev Hook that is called after any token transfer.\n     * @param from The address from which tokens are transferred.\n     * @param to The address to which tokens are transferred.\n     * @param amount The amount of tokens being transferred.\n     */\n    function _afterTokenTransfer(address from, address to, uint256 amount) internal override(ERC20) {\n        //require(whitelist[msg.sender], \"You need to be whitelisted\");\n        super._afterTokenTransfer(from, to, amount * (10 ** 18));\n    }\n\n    /**\n     * @dev Mints tokens to the specified address.\n     * @param to The address to which tokens are minted.\n     * @param amount The amount of tokens to be minted.\n     */\n    function mint(address to, uint256 amount) public {\n        //require(amount <= 500, \"Do not cheat\");\n        _mint(to, amount * (10 ** 18));\n    }\n\n    /**\n     * @dev Burns tokens from the specified address.\n     * @param account The address from which tokens are burned.\n     * @param amount The amount of tokens to be burned.\n     */\n    function burn(address account, uint256 amount) public onlyOwner {\n        _burn(account, amount * (10 ** 18));\n    }\n\n    /**\n     * @dev Overrides ERC20 transfer function to restrict transfers to only the contract owner.\n     * @param recipient The address to which tokens are transferred.\n     * @param amount The amount of tokens to be transferred.\n     * @return A boolean value indicating whether the transfer was successful or not.\n     */\n    function transfer(address recipient, uint256 amount) public override onlyOwner returns (bool) {\n        _transfer(msg.sender, recipient, amount * (10 ** 18));\n        emit DenyTransfer(recipient, amount * (10 ** 18));\n        return true;\n    }\n\n    /**\n     * @dev Overrides ERC20 transferFrom function to restrict transfers from only the contract owner.\n     * @param sender The address from which tokens are transferred.\n     * @param recipient The address to which tokens are transferred.\n     * @param amount The amount of tokens to be transferred.\n     * @return A boolean value indicating whether the transfer was successful or not.\n     */\n    function transferFrom(address sender, address recipient, uint256 amount) public override onlyOwner returns (bool) {\n        _transfer(sender, recipient, amount * (10 ** 18));\n        emit DenyTransferFrom(sender, recipient, amount * (10 ** 18));\n        return true;\n    }\n\n    /**\n     * @dev Adds the bank address which will be allowed to perform certain actions.\n     * @param _addressToKing The address of the bank to be added.\n     */\n    function addBank(address _addressToKing) public onlyOwner {\n        bank = _addressToKing;\n    }\n\n}",
  "sourcePath": "/home/souhail/Documents/PROJET Station F/Move/Origintrail-App/bank/Origintrail/contracts/Token.sol",
  "compiler": {
    "name": "solc",
    "version": "0.8.12+commit.f00d7308.Emscripten.clang"
  },
  "schemaVersion": "3.4.6",
  "updatedAt": "2023-07-27T23:21:33.656Z",
  "networkType": "ethereum",
  "devdoc": {
    "details": "A basic ERC20 token contract with additional functionalities.",
    "kind": "dev",
    "methods": {
      "addBank(address)": {
        "details": "Adds the bank address which will be allowed to perform certain actions.",
        "params": {
          "_addressToKing": "The address of the bank to be added."
        }
      },
      "allowance(address,address)": {
        "details": "See {IERC20-allowance}."
      },
      "approve(address,uint256)": {
        "details": "See {IERC20-approve}. NOTE: If `amount` is the maximum `uint256`, the allowance is not updated on `transferFrom`. This is semantically equivalent to an infinite approval. Requirements: - `spender` cannot be the zero address."
      },
      "balanceOf(address)": {
        "details": "See {IERC20-balanceOf}."
      },
      "burn(address,uint256)": {
        "details": "Burns tokens from the specified address.",
        "params": {
          "account": "The address from which tokens are burned.",
          "amount": "The amount of tokens to be burned."
        }
      },
      "constructor": {
        "details": "Contract constructor. Sets the initial token supply and mints tokens to the contract creator and the contract itself."
      },
      "decimals()": {
        "details": "Returns the number of decimals used to get its user representation. For example, if `decimals` equals `2`, a balance of `505` tokens should be displayed to a user as `5.05` (`505 / 10 ** 2`). Tokens usually opt for a value of 18, imitating the relationship between Ether and Wei. This is the default value returned by this function, unless it's overridden. NOTE: This information is only used for _display_ purposes: it in no way affects any of the arithmetic of the contract, including {IERC20-balanceOf} and {IERC20-transfer}."
      },
      "decreaseAllowance(address,uint256)": {
        "details": "Atomically decreases the allowance granted to `spender` by the caller. This is an alternative to {approve} that can be used as a mitigation for problems described in {IERC20-approve}. Emits an {Approval} event indicating the updated allowance. Requirements: - `spender` cannot be the zero address. - `spender` must have allowance for the caller of at least `subtractedValue`."
      },
      "increaseAllowance(address,uint256)": {
        "details": "Atomically increases the allowance granted to `spender` by the caller. This is an alternative to {approve} that can be used as a mitigation for problems described in {IERC20-approve}. Emits an {Approval} event indicating the updated allowance. Requirements: - `spender` cannot be the zero address."
      },
      "mint(address,uint256)": {
        "details": "Mints tokens to the specified address.",
        "params": {
          "amount": "The amount of tokens to be minted.",
          "to": "The address to which tokens are minted."
        }
      },
      "name()": {
        "details": "Returns the name of the token."
      },
      "symbol()": {
        "details": "Returns the symbol of the token, usually a shorter version of the name."
      },
      "totalSupply()": {
        "details": "See {IERC20-totalSupply}."
      },
      "transfer(address,uint256)": {
        "details": "Overrides ERC20 transfer function to restrict transfers to only the contract owner.",
        "params": {
          "amount": "The amount of tokens to be transferred.",
          "recipient": "The address to which tokens are transferred."
        },
        "returns": {
          "_0": "A boolean value indicating whether the transfer was successful or not."
        }
      },
      "transferFrom(address,address,uint256)": {
        "details": "Overrides ERC20 transferFrom function to restrict transfers from only the contract owner.",
        "params": {
          "amount": "The amount of tokens to be transferred.",
          "recipient": "The address to which tokens are transferred.",
          "sender": "The address from which tokens are transferred."
        },
        "returns": {
          "_0": "A boolean value indicating whether the transfer was successful or not."
        }
      }
    },
    "title": "Token",
    "version": 1
  },
  "userdoc": {
    "kind": "user",
    "methods": {},
    "version": 1
  }
}